{"abi":[{"type":"constructor","inputs":[{"name":"tokens","type":"address[]","internalType":"address[]"},{"name":"aggregators","type":"address[]","internalType":"address[]"}],"stateMutability":"nonpayable"},{"type":"function","name":"LIQUIDATION_BONUS","inputs":[],"outputs":[{"name":"","type":"uint256","internalType":"uint256"}],"stateMutability":"view"},{"type":"function","name":"LIQUIDATION_FEE","inputs":[],"outputs":[{"name":"","type":"uint256","internalType":"uint256"}],"stateMutability":"view"},{"type":"function","name":"LIQUIDATION_THRESHOLD","inputs":[],"outputs":[{"name":"","type":"uint256","internalType":"uint256"}],"stateMutability":"view"},{"type":"function","name":"MIN_COLLATERAL_RATIO","inputs":[],"outputs":[{"name":"","type":"uint256","internalType":"uint256"}],"stateMutability":"view"},{"type":"function","name":"addSupportedToken","inputs":[{"name":"token","type":"address","internalType":"address"},{"name":"agg","type":"address","internalType":"address"}],"outputs":[],"stateMutability":"nonpayable"},{"type":"function","name":"allowance","inputs":[{"name":"owner","type":"address","internalType":"address"},{"name":"spender","type":"address","internalType":"address"}],"outputs":[{"name":"","type":"uint256","internalType":"uint256"}],"stateMutability":"view"},{"type":"function","name":"approve","inputs":[{"name":"spender","type":"address","internalType":"address"},{"name":"amount","type":"uint256","internalType":"uint256"}],"outputs":[{"name":"","type":"bool","internalType":"bool"}],"stateMutability":"nonpayable"},{"type":"function","name":"balanceOf","inputs":[{"name":"account","type":"address","internalType":"address"}],"outputs":[{"name":"","type":"uint256","internalType":"uint256"}],"stateMutability":"view"},{"type":"function","name":"blacklisted","inputs":[{"name":"","type":"address","internalType":"address"}],"outputs":[{"name":"","type":"bool","internalType":"bool"}],"stateMutability":"view"},{"type":"function","name":"burn","inputs":[{"name":"amount","type":"uint256","internalType":"uint256"}],"outputs":[],"stateMutability":"nonpayable"},{"type":"function","name":"decimals","inputs":[],"outputs":[{"name":"","type":"uint8","internalType":"uint8"}],"stateMutability":"view"},{"type":"function","name":"depositCollateral","inputs":[{"name":"token","type":"address","internalType":"address"},{"name":"amount","type":"uint256","internalType":"uint256"}],"outputs":[],"stateMutability":"nonpayable"},{"type":"function","name":"emergencyWithdraw","inputs":[{"name":"token","type":"address","internalType":"address"},{"name":"to","type":"address","internalType":"address"},{"name":"amount","type":"uint256","internalType":"uint256"}],"outputs":[],"stateMutability":"nonpayable"},{"type":"function","name":"estimatedLiquidationPrice","inputs":[{"name":"user","type":"address","internalType":"address"},{"name":"token","type":"address","internalType":"address"}],"outputs":[{"name":"price18","type":"uint256","internalType":"uint256"}],"stateMutability":"view"},{"type":"function","name":"getPosition","inputs":[{"name":"user","type":"address","internalType":"address"},{"name":"token","type":"address","internalType":"address"}],"outputs":[{"name":"collateralAmount","type":"uint256","internalType":"uint256"},{"name":"debt","type":"uint256","internalType":"uint256"},{"name":"collateralRatioPercent","type":"uint256","internalType":"uint256"}],"stateMutability":"view"},{"type":"function","name":"healthRatio","inputs":[{"name":"user","type":"address","internalType":"address"},{"name":"token","type":"address","internalType":"address"}],"outputs":[{"name":"","type":"uint256","internalType":"uint256"}],"stateMutability":"view"},{"type":"function","name":"liquidate","inputs":[{"name":"user","type":"address","internalType":"address"},{"name":"token","type":"address","internalType":"address"},{"name":"repayAmount","type":"uint256","internalType":"uint256"}],"outputs":[],"stateMutability":"nonpayable"},{"type":"function","name":"maxMintable","inputs":[{"name":"user","type":"address","internalType":"address"},{"name":"token","type":"address","internalType":"address"}],"outputs":[{"name":"","type":"uint256","internalType":"uint256"}],"stateMutability":"view"},{"type":"function","name":"mint","inputs":[{"name":"token","type":"address","internalType":"address"},{"name":"amount","type":"uint256","internalType":"uint256"}],"outputs":[],"stateMutability":"nonpayable"},{"type":"function","name":"name","inputs":[],"outputs":[{"name":"","type":"string","internalType":"string"}],"stateMutability":"view"},{"type":"function","name":"owner","inputs":[],"outputs":[{"name":"","type":"address","internalType":"address"}],"stateMutability":"view"},{"type":"function","name":"pause","inputs":[],"outputs":[],"stateMutability":"nonpayable"},{"type":"function","name":"paused","inputs":[],"outputs":[{"name":"","type":"bool","internalType":"bool"}],"stateMutability":"view"},{"type":"function","name":"positions","inputs":[{"name":"","type":"address","internalType":"address"},{"name":"","type":"address","internalType":"address"}],"outputs":[{"name":"collateralAmount","type":"uint256","internalType":"uint256"},{"name":"debt","type":"uint256","internalType":"uint256"},{"name":"collateralRatio","type":"uint256","internalType":"uint256"}],"stateMutability":"view"},{"type":"function","name":"priceFeed","inputs":[{"name":"","type":"address","internalType":"address"}],"outputs":[{"name":"","type":"address","internalType":"address"}],"stateMutability":"view"},{"type":"function","name":"removeSupportedToken","inputs":[{"name":"token","type":"address","internalType":"address"}],"outputs":[],"stateMutability":"nonpayable"},{"type":"function","name":"renounceOwnership","inputs":[],"outputs":[],"stateMutability":"nonpayable"},{"type":"function","name":"repay","inputs":[{"name":"amount","type":"uint256","internalType":"uint256"}],"outputs":[],"stateMutability":"nonpayable"},{"type":"function","name":"setBlacklist","inputs":[{"name":"who","type":"address","internalType":"address"},{"name":"v","type":"bool","internalType":"bool"}],"outputs":[],"stateMutability":"nonpayable"},{"type":"function","name":"setCollateralizationRatio","inputs":[{"name":"token","type":"address","internalType":"address"},{"name":"ratioPercent","type":"uint256","internalType":"uint256"}],"outputs":[],"stateMutability":"nonpayable"},{"type":"function","name":"supportedCollateral","inputs":[{"name":"","type":"address","internalType":"address"}],"outputs":[{"name":"","type":"bool","internalType":"bool"}],"stateMutability":"view"},{"type":"function","name":"supportedTokens","inputs":[{"name":"","type":"uint256","internalType":"uint256"}],"outputs":[{"name":"","type":"address","internalType":"address"}],"stateMutability":"view"},{"type":"function","name":"symbol","inputs":[],"outputs":[{"name":"","type":"string","internalType":"string"}],"stateMutability":"view"},{"type":"function","name":"totalSupply","inputs":[],"outputs":[{"name":"","type":"uint256","internalType":"uint256"}],"stateMutability":"view"},{"type":"function","name":"transfer","inputs":[{"name":"to","type":"address","internalType":"address"},{"name":"amount","type":"uint256","internalType":"uint256"}],"outputs":[{"name":"","type":"bool","internalType":"bool"}],"stateMutability":"nonpayable"},{"type":"function","name":"transferFrom","inputs":[{"name":"from","type":"address","internalType":"address"},{"name":"to","type":"address","internalType":"address"},{"name":"amount","type":"uint256","internalType":"uint256"}],"outputs":[{"name":"","type":"bool","internalType":"bool"}],"stateMutability":"nonpayable"},{"type":"function","name":"transferOwnership","inputs":[{"name":"newOwner","type":"address","internalType":"address"}],"outputs":[],"stateMutability":"nonpayable"},{"type":"function","name":"treasuryBalance","inputs":[{"name":"","type":"address","internalType":"address"}],"outputs":[{"name":"","type":"uint256","internalType":"uint256"}],"stateMutability":"view"},{"type":"function","name":"unpause","inputs":[],"outputs":[],"stateMutability":"nonpayable"},{"type":"function","name":"withdrawCollateral","inputs":[{"name":"token","type":"address","internalType":"address"},{"name":"amount","type":"uint256","internalType":"uint256"}],"outputs":[],"stateMutability":"nonpayable"},{"type":"function","name":"withdrawTreasury","inputs":[{"name":"token","type":"address","internalType":"address"},{"name":"to","type":"address","internalType":"address"},{"name":"amount","type":"uint256","internalType":"uint256"}],"outputs":[],"stateMutability":"nonpayable"},{"type":"event","name":"Approval","inputs":[{"name":"owner","type":"address","indexed":true,"internalType":"address"},{"name":"spender","type":"address","indexed":true,"internalType":"address"},{"name":"value","type":"uint256","indexed":false,"internalType":"uint256"}],"anonymous":false},{"type":"event","name":"Burn","inputs":[{"name":"user","type":"address","indexed":true,"internalType":"address"},{"name":"amount","type":"uint256","indexed":false,"internalType":"uint256"}],"anonymous":false},{"type":"event","name":"CollateralRatioSet","inputs":[{"name":"user","type":"address","indexed":true,"internalType":"address"},{"name":"token","type":"address","indexed":true,"internalType":"address"},{"name":"ratio","type":"uint256","indexed":false,"internalType":"uint256"}],"anonymous":false},{"type":"event","name":"Deposit","inputs":[{"name":"user","type":"address","indexed":true,"internalType":"address"},{"name":"token","type":"address","indexed":true,"internalType":"address"},{"name":"amount","type":"uint256","indexed":false,"internalType":"uint256"}],"anonymous":false},{"type":"event","name":"Liquidated","inputs":[{"name":"user","type":"address","indexed":true,"internalType":"address"},{"name":"token","type":"address","indexed":true,"internalType":"address"},{"name":"repaid","type":"uint256","indexed":false,"internalType":"uint256"},{"name":"collateralTaken","type":"uint256","indexed":false,"internalType":"uint256"},{"name":"treasuryAmount","type":"uint256","indexed":false,"internalType":"uint256"}],"anonymous":false},{"type":"event","name":"Mint","inputs":[{"name":"user","type":"address","indexed":true,"internalType":"address"},{"name":"amount","type":"uint256","indexed":false,"internalType":"uint256"}],"anonymous":false},{"type":"event","name":"OwnershipTransferred","inputs":[{"name":"previousOwner","type":"address","indexed":true,"internalType":"address"},{"name":"newOwner","type":"address","indexed":true,"internalType":"address"}],"anonymous":false},{"type":"event","name":"Transfer","inputs":[{"name":"from","type":"address","indexed":true,"internalType":"address"},{"name":"to","type":"address","indexed":true,"internalType":"address"},{"name":"value","type":"uint256","indexed":false,"internalType":"uint256"}],"anonymous":false},{"type":"event","name":"Withdraw","inputs":[{"name":"user","type":"address","indexed":true,"internalType":"address"},{"name":"token","type":"address","indexed":true,"internalType":"address"},{"name":"amount","type":"uint256","indexed":false,"internalType":"uint256"}],"anonymous":false}],"bytecode":{"object":"0x608060405234801562000010575f80fd5b50604051620069203803806200692083398181016040528101906200003691906200059e565b6040518060400160405280600a81526020017f43445020537461626c65000000000000000000000000000000000000000000008152506040518060400160405280600481526020017f635553440000000000000000000000000000000000000000000000000000000081525060128260039081620000b5919062000858565b508160049081620000c7919062000858565b508060055f6101000a81548160ff021916908360ff16021790555050505033600560016101000a81548173ffffffffffffffffffffffffffffffffffffffff021916908373ffffffffffffffffffffffffffffffffffffffff160217905550600560019054906101000a900473ffffffffffffffffffffffffffffffffffffffff1673ffffffffffffffffffffffffffffffffffffffff165f73ffffffffffffffffffffffffffffffffffffffff167f8be0079c531659141344cd1fd0a4f28419497f9722a3daafe3b4186f6b6457e060405160405180910390a360016006819055508051825114620001f1576040517f08c379a0000000000000000000000000000000000000000000000000000000008152600401620001e8906200099a565b60405180910390fd5b5f5b8251811015620003b757600160085f858481518110620002185762000217620009ba565b5b602002602001015173ffffffffffffffffffffffffffffffffffffffff1673ffffffffffffffffffffffffffffffffffffffff1681526020019081526020015f205f6101000a81548160ff021916908315150217905550818181518110620002855762000284620009ba565b5b602002602001015160075f858481518110620002a657620002a5620009ba565b5b602002602001015173ffffffffffffffffffffffffffffffffffffffff1673ffffffffffffffffffffffffffffffffffffffff1681526020019081526020015f205f6101000a81548173ffffffffffffffffffffffffffffffffffffffff021916908373ffffffffffffffffffffffffffffffffffffffff16021790555060098382815181106200033c576200033b620009ba565b5b6020026020010151908060018154018082558091505060019003905f5260205f20015f9091909190916101000a81548173ffffffffffffffffffffffffffffffffffffffff021916908373ffffffffffffffffffffffffffffffffffffffff1602179055508080620003ae9062000a14565b915050620001f3565b50505062000a60565b5f604051905090565b5f80fd5b5f80fd5b5f80fd5b5f601f19601f8301169050919050565b7f4e487b71000000000000000000000000000000000000000000000000000000005f52604160045260245ffd5b6200041d82620003d5565b810181811067ffffffffffffffff821117156200043f576200043e620003e5565b5b80604052505050565b5f62000453620003c0565b905062000461828262000412565b919050565b5f67ffffffffffffffff821115620004835762000482620003e5565b5b602082029050602081019050919050565b5f80fd5b5f73ffffffffffffffffffffffffffffffffffffffff82169050919050565b5f620004c38262000498565b9050919050565b620004d581620004b7565b8114620004e0575f80fd5b50565b5f81519050620004f381620004ca565b92915050565b5f6200050f620005098462000466565b62000448565b9050808382526020820190506020840283018581111562000535576200053462000494565b5b835b818110156200056257806200054d8882620004e3565b84526020840193505060208101905062000537565b5050509392505050565b5f82601f830112620005835762000582620003d1565b5b815162000595848260208601620004f9565b91505092915050565b5f8060408385031215620005b757620005b6620003c9565b5b5f83015167ffffffffffffffff811115620005d757620005d6620003cd565b5b620005e5858286016200056c565b925050602083015167ffffffffffffffff811115620006095762000608620003cd565b5b62000617858286016200056c565b9150509250929050565b5f81519050919050565b7f4e487b71000000000000000000000000000000000000000000000000000000005f52602260045260245ffd5b5f60028204905060018216806200067057607f821691505b6020821081036200068657620006856200062b565b5b50919050565b5f819050815f5260205f209050919050565b5f6020601f8301049050919050565b5f82821b905092915050565b5f60088302620006ea7fffffffffffffffffffffffffffffffffffffffffffffffffffffffffffffffff82620006ad565b620006f68683620006ad565b95508019841693508086168417925050509392505050565b5f819050919050565b5f819050919050565b5f620007406200073a62000734846200070e565b62000717565b6200070e565b9050919050565b5f819050919050565b6200075b8362000720565b620007736200076a8262000747565b848454620006b9565b825550505050565b5f90565b620007896200077b565b6200079681848462000750565b505050565b5b81811015620007bd57620007b15f826200077f565b6001810190506200079c565b5050565b601f8211156200080c57620007d6816200068c565b620007e1846200069e565b81016020851015620007f1578190505b6200080962000800856200069e565b8301826200079b565b50505b505050565b5f82821c905092915050565b5f6200082e5f198460080262000811565b1980831691505092915050565b5f6200084883836200081d565b9150826002028217905092915050565b620008638262000621565b67ffffffffffffffff8111156200087f576200087e620003e5565b5b6200088b825462000658565b62000898828285620007c1565b5f60209050601f831160018114620008ce575f8415620008b9578287015190505b620008c585826200083b565b86555062000934565b601f198416620008de866200068c565b5f5b828110156200090757848901518255600182019150602085019450602081019050620008e0565b8683101562000927578489015162000923601f8916826200081d565b8355505b6001600288020188555050505b505050505050565b5f82825260208201905092915050565b7f746f6b656e732f61676772656761746f7273206c656e677468000000000000005f82015250565b5f620009826019836200093c565b91506200098f826200094c565b602082019050919050565b5f6020820190508181035f830152620009b38162000974565b9050919050565b7f4e487b71000000000000000000000000000000000000000000000000000000005f52603260045260245ffd5b7f4e487b71000000000000000000000000000000000000000000000000000000005f52601160045260245ffd5b5f62000a20826200070e565b91507fffffffffffffffffffffffffffffffffffffffffffffffffffffffffffffffff820362000a555762000a54620009e7565b5b600182019050919050565b615eb28062000a6e5f395ff3fe608060405234801561000f575f80fd5b5060043610610251575f3560e01c806373149daa11610144578063b1827330116100c1578063d825183d11610085578063d825183d146106e7578063dbac26e914610717578063dd62ed3e14610747578063e63ea40814610777578063f2fde38b14610793578063fa550eba146107af57610251565b8063b18273301461061b578063b33dc19014610639578063c2b7be161461066b578063c625562614610687578063d394dd9c146106b757610251565b80638da5cb5b116101085780638da5cb5b1461057557806390a8ae9b1461059357806395d89b41146105b1578063a5d5db0c146105cf578063a9059cbb146105eb57610251565b806373149daa146104e5578063763191901461050157806376d919d11461051d5780637a9fffb71461054d5780638456cb591461056b57610251565b806335deba68116101d25780634bd21445116101965780634bd214451461042b57806354445ae61461045d5780635c975abb1461048d57806370a08231146104ab578063715018a6146104db57610251565b806335deba68146103b1578063371fd8e6146103cd5780633f4ba83a146103e957806340c10f19146103f357806342966c681461040f57610251565b806323b872dd1161021957806323b872dd1461030d57806326c013031461033d578063313ce56714610359578063350c35e9146103775780633574d4c41461039357610251565b806306fdde0314610255578063095ea7b314610273578063153b0d1e146102a357806318160ddd146102bf5780631fd48b9a146102dd575b5f80fd5b61025d6107df565b60405161026a919061456d565b60405180910390f35b61028d6004803603810190610288919061461e565b61086f565b60405161029a9190614676565b60405180910390f35b6102bd60048036038101906102b891906146b9565b610885565b005b6102c761096d565b6040516102d49190614706565b60405180910390f35b6102f760048036038101906102f2919061471f565b610976565b6040516103049190614759565b60405180910390f35b61032760048036038101906103229190614772565b6109a6565b6040516103349190614676565b60405180910390f35b61035760048036038101906103529190614772565b610a93565b005b610361610fe3565b60405161036e91906147dd565b60405180910390f35b610391600480360381019061038c919061461e565b610ff8565b005b61039b611432565b6040516103a89190614706565b60405180910390f35b6103cb60048036038101906103c6919061461e565b611437565b005b6103e760048036038101906103e291906147f6565b61179e565b005b6103f1611c15565b005b61040d6004803603810190610408919061461e565b611cc0565b005b610429600480360381019061042491906147f6565b612055565b005b61044560048036038101906104409190614821565b612061565b6040516104549392919061485f565b60405180910390f35b6104776004803603810190610472919061471f565b612092565b6040516104849190614706565b60405180910390f35b6104956120a7565b6040516104a29190614676565b60405180910390f35b6104c560048036038101906104c0919061471f565b6120b9565b6040516104d29190614706565b60405180910390f35b6104e36120fe565b005b6104ff60048036038101906104fa9190614772565b61224d565b005b61051b6004803603810190610516919061471f565b6124e1565b005b61053760048036038101906105329190614821565b61284c565b6040516105449190614706565b60405180910390f35b6105556129af565b6040516105629190614706565b60405180910390f35b6105736129b4565b005b61057d612a60565b60405161058a9190614759565b60405180910390f35b61059b612a89565b6040516105a89190614706565b60405180910390f35b6105b9612a8e565b6040516105c6919061456d565b60405180910390f35b6105e960048036038101906105e4919061461e565b612b1e565b005b6106056004803603810190610600919061461e565b612e90565b6040516106129190614676565b60405180910390f35b610623612ea6565b6040516106309190614706565b60405180910390f35b610653600480360381019061064e9190614821565b612eab565b6040516106629392919061485f565b60405180910390f35b61068560048036038101906106809190614821565b612f45565b005b6106a1600480360381019061069c91906147f6565b613193565b6040516106ae9190614759565b60405180910390f35b6106d160048036038101906106cc9190614821565b6131ce565b6040516106de9190614706565b60405180910390f35b61070160048036038101906106fc9190614821565b6132b5565b60405161070e9190614706565b60405180910390f35b610731600480360381019061072c919061471f565b613415565b60405161073e9190614676565b60405180910390f35b610761600480360381019061075c9190614821565b613432565b60405161076e9190614706565b60405180910390f35b610791600480360381019061078c9190614772565b6134b4565b005b6107ad60048036038101906107a8919061471f565b6137c9565b005b6107c960048036038101906107c4919061471f565b613987565b6040516107d69190614676565b60405180910390f35b6060600380546107ee906148c1565b80601f016020809104026020016040519081016040528092919081815260200182805461081a906148c1565b80156108655780601f1061083c57610100808354040283529160200191610865565b820191905f5260205f20905b81548152906001019060200180831161084857829003601f168201915b5050505050905090565b5f61087b3384846139a4565b6001905092915050565b600560019054906101000a900473ffffffffffffffffffffffffffffffffffffffff1673ffffffffffffffffffffffffffffffffffffffff163373ffffffffffffffffffffffffffffffffffffffff1614610915576040517f08c379a000000000000000000000000000000000000000000000000000000000815260040161090c9061493b565b60405180910390fd5b80600d5f8473ffffffffffffffffffffffffffffffffffffffff1673ffffffffffffffffffffffffffffffffffffffff1681526020019081526020015f205f6101000a81548160ff0219169083151502179055505050565b5f600254905090565b6007602052805f5260405f205f915054906101000a900473ffffffffffffffffffffffffffffffffffffffff1681565b5f8060015f8673ffffffffffffffffffffffffffffffffffffffff1673ffffffffffffffffffffffffffffffffffffffff1681526020019081526020015f205f3373ffffffffffffffffffffffffffffffffffffffff1673ffffffffffffffffffffffffffffffffffffffff1681526020019081526020015f2054905082811015610a66576040517f08c379a0000000000000000000000000000000000000000000000000000000008152600401610a5d906149c9565b60405180910390fd5b610a7c85338584610a779190614a14565b6139a4565b610a87858585613a8b565b60019150509392505050565b600160065414610ad8576040517f08c379a0000000000000000000000000000000000000000000000000000000008152600401610acf90614a91565b60405180910390fd5b60026006819055508160085f8273ffffffffffffffffffffffffffffffffffffffff1673ffffffffffffffffffffffffffffffffffffffff1681526020019081526020015f205f9054906101000a900460ff16610b6a576040517f08c379a0000000000000000000000000000000000000000000000000000000008152600401610b6190614af9565b60405180910390fd5b5f8211610bac576040517f08c379a0000000000000000000000000000000000000000000000000000000008152600401610ba390614b61565b60405180910390fd5b5f600a5f8673ffffffffffffffffffffffffffffffffffffffff1673ffffffffffffffffffffffffffffffffffffffff1681526020019081526020015f205f8573ffffffffffffffffffffffffffffffffffffffff1673ffffffffffffffffffffffffffffffffffffffff1681526020019081526020015f2090505f816001015411610c6d576040517f08c379a0000000000000000000000000000000000000000000000000000000008152600401610c6490614bc9565b60405180910390fd5b8060010154831115610cb4576040517f08c379a0000000000000000000000000000000000000000000000000000000008152600401610cab90614c31565b60405180910390fd5b5f610cc285835f0154613c18565b90505f8260010154606483610cd79190614c4f565b610ce19190614cbd565b9050606e8110610d26576040517f08c379a0000000000000000000000000000000000000000000000000000000008152600401610d1d90614d37565b60405180910390fd5b5f805f610d378989885f0154613ed7565b92509250925082610d483330613432565b1015610d89576040517f08c379a0000000000000000000000000000000000000000000000000000000008152600401610d8090614dc5565b60405180910390fd5b3073ffffffffffffffffffffffffffffffffffffffff166323b872dd3330866040518463ffffffff1660e01b8152600401610dc693929190614de3565b6020604051808303815f875af1158015610de2573d5f803e3d5ffd5b505050506040513d601f19601f82011682018060405250810190610e069190614e2c565b50610e113084614169565b5f818311610e1f575f610e2c565b8183610e2b9190614a14565b5b9050865f0154831115610e4057865f015492505b82875f015f828254610e529190614a14565b925050819055508660010154841015610e7a57838760010154610e759190614a14565b610e7c565b5f5b87600101819055505f811115610f09578973ffffffffffffffffffffffffffffffffffffffff1663a9059cbb33836040518363ffffffff1660e01b8152600401610ec7929190614e57565b6020604051808303815f875af1158015610ee3573d5f803e3d5ffd5b505050506040513d601f19601f82011682018060405250810190610f079190614e2c565b505b5f821115610f655781600b5f8c73ffffffffffffffffffffffffffffffffffffffff1673ffffffffffffffffffffffffffffffffffffffff1681526020019081526020015f205f828254610f5d9190614e7e565b925050819055505b8973ffffffffffffffffffffffffffffffffffffffff168b73ffffffffffffffffffffffffffffffffffffffff167ffcbc974bf3a532baf2bb229db3c37fd58299b62d2d1db6a855dac5b693bb6ff3868686604051610fc69392919061485f565b60405180910390a350505050505050506001600681905550505050565b5f60055f9054906101000a900460ff16905090565b60016006541461103d576040517f08c379a000000000000000000000000000000000000000000000000000000000815260040161103490614a91565b60405180910390fd5b60026006819055508160085f8273ffffffffffffffffffffffffffffffffffffffff1673ffffffffffffffffffffffffffffffffffffffff1681526020019081526020015f205f9054906101000a900460ff166110cf576040517f08c379a00000000000000000000000000000000000000000000000000000000081526004016110c690614af9565b60405180910390fd5b600c5f9054906101000a900460ff161561111e576040517f08c379a000000000000000000000000000000000000000000000000000000000815260040161111590614efb565b60405180910390fd5b600d5f3373ffffffffffffffffffffffffffffffffffffffff1673ffffffffffffffffffffffffffffffffffffffff1681526020019081526020015f205f9054906101000a900460ff16156111a8576040517f08c379a000000000000000000000000000000000000000000000000000000000815260040161119f90614f63565b60405180910390fd5b5f600a5f3373ffffffffffffffffffffffffffffffffffffffff1673ffffffffffffffffffffffffffffffffffffffff1681526020019081526020015f205f8573ffffffffffffffffffffffffffffffffffffffff1673ffffffffffffffffffffffffffffffffffffffff1681526020019081526020015f2090505f8311611265576040517f08c379a000000000000000000000000000000000000000000000000000000000815260040161125c90614fcb565b60405180910390fd5b82815f015410156112ab576040517f08c379a00000000000000000000000000000000000000000000000000000000081526004016112a290615059565b60405180910390fd5b5f83825f01546112bb9190614a14565b90505f8260010154111561133a575f6112d48683613c18565b9050826002015483600101546112ea9190614c4f565b6064826112f79190614c4f565b1015611338576040517f08c379a000000000000000000000000000000000000000000000000000000000815260040161132f906150c1565b60405180910390fd5b505b80825f01819055508473ffffffffffffffffffffffffffffffffffffffff1663a9059cbb33866040518363ffffffff1660e01b815260040161137d929190614e57565b6020604051808303815f875af1158015611399573d5f803e3d5ffd5b505050506040513d601f19601f820116820180604052508101906113bd9190614e2c565b508473ffffffffffffffffffffffffffffffffffffffff163373ffffffffffffffffffffffffffffffffffffffff167f9b1bfa7fa9ee420a16e124f794c35ac9f90472acc99140eb2f6447c714cad8eb8660405161141b9190614706565b60405180910390a350505060016006819055505050565b600181565b60016006541461147c576040517f08c379a000000000000000000000000000000000000000000000000000000000815260040161147390614a91565b60405180910390fd5b60026006819055508160085f8273ffffffffffffffffffffffffffffffffffffffff1673ffffffffffffffffffffffffffffffffffffffff1681526020019081526020015f205f9054906101000a900460ff1661150e576040517f08c379a000000000000000000000000000000000000000000000000000000000815260040161150590614af9565b60405180910390fd5b600c5f9054906101000a900460ff161561155d576040517f08c379a000000000000000000000000000000000000000000000000000000000815260040161155490614efb565b60405180910390fd5b600d5f3373ffffffffffffffffffffffffffffffffffffffff1673ffffffffffffffffffffffffffffffffffffffff1681526020019081526020015f205f9054906101000a900460ff16156115e7576040517f08c379a00000000000000000000000000000000000000000000000000000000081526004016115de90614f63565b60405180910390fd5b607882101561162b576040517f08c379a000000000000000000000000000000000000000000000000000000000815260040161162290615129565b60405180910390fd5b5f600a5f3373ffffffffffffffffffffffffffffffffffffffff1673ffffffffffffffffffffffffffffffffffffffff1681526020019081526020015f205f8573ffffffffffffffffffffffffffffffffffffffff1673ffffffffffffffffffffffffffffffffffffffff1681526020019081526020015f2090505f81600101541115611722575f6116c085835f0154613c18565b90508382600101546116d29190614c4f565b6064826116df9190614c4f565b1015611720576040517f08c379a0000000000000000000000000000000000000000000000000000000008152600401611717906151b7565b60405180910390fd5b505b8281600201819055508373ffffffffffffffffffffffffffffffffffffffff163373ffffffffffffffffffffffffffffffffffffffff167fbb954fdfea07d1739aed4eac919b151903b481aeacf9d99e3ce768ca82a2a0a9856040516117889190614706565b60405180910390a3505060016006819055505050565b6001600654146117e3576040517f08c379a00000000000000000000000000000000000000000000000000000000081526004016117da90614a91565b60405180910390fd5b6002600681905550600c5f9054906101000a900460ff161561183a576040517f08c379a000000000000000000000000000000000000000000000000000000000815260040161183190614efb565b60405180910390fd5b600d5f3373ffffffffffffffffffffffffffffffffffffffff1673ffffffffffffffffffffffffffffffffffffffff1681526020019081526020015f205f9054906101000a900460ff16156118c4576040517f08c379a00000000000000000000000000000000000000000000000000000000081526004016118bb90614f63565b60405180910390fd5b5f8111611906576040517f08c379a00000000000000000000000000000000000000000000000000000000081526004016118fd9061521f565b60405180910390fd5b5f611910336142bb565b905081811015611955576040517f08c379a000000000000000000000000000000000000000000000000000000000815260040161194c90615287565b60405180910390fd5b3073ffffffffffffffffffffffffffffffffffffffff166323b872dd3330856040518463ffffffff1660e01b815260040161199293929190614de3565b6020604051808303815f875af11580156119ae573d5f803e3d5ffd5b505050506040513d601f19601f820116820180604052508101906119d29190614e2c565b506119dd3083614169565b5f6009805480602002602001604051908101604052809291908181526020018280548015611a5d57602002820191905f5260205f20905b815f9054906101000a900473ffffffffffffffffffffffffffffffffffffffff1673ffffffffffffffffffffffffffffffffffffffff1681526020019060010190808311611a14575b505050505090505f8390505f5b825181108015611a7957505f82115b15611bb8575f600a5f3373ffffffffffffffffffffffffffffffffffffffff1673ffffffffffffffffffffffffffffffffffffffff1681526020019081526020015f205f858481518110611ad057611acf6152a5565b5b602002602001015173ffffffffffffffffffffffffffffffffffffffff1673ffffffffffffffffffffffffffffffffffffffff1681526020019081526020015f2090505f816001015403611b245750611ba5565b5f85826001015488611b369190614c4f565b611b409190614cbd565b90508160010154811115611b5657816001015490505b60018551611b649190614a14565b83148015611b7157508084115b15611b7a578390505b80826001015f828254611b8d9190614a14565b925050819055508084611ba09190614a14565b935050505b8080611bb0906152d2565b915050611a6a565b503373ffffffffffffffffffffffffffffffffffffffff167fcc16f5dbb4873280815c1ee09dbd06736cffcc184412cf7a71a0fdb75d397ca585604051611bff9190614706565b60405180910390a2505050600160068190555050565b600560019054906101000a900473ffffffffffffffffffffffffffffffffffffffff1673ffffffffffffffffffffffffffffffffffffffff163373ffffffffffffffffffffffffffffffffffffffff1614611ca5576040517f08c379a0000000000000000000000000000000000000000000000000000000008152600401611c9c9061493b565b60405180910390fd5b5f600c5f6101000a81548160ff021916908315150217905550565b600160065414611d05576040517f08c379a0000000000000000000000000000000000000000000000000000000008152600401611cfc90614a91565b60405180910390fd5b60026006819055508160085f8273ffffffffffffffffffffffffffffffffffffffff1673ffffffffffffffffffffffffffffffffffffffff1681526020019081526020015f205f9054906101000a900460ff16611d97576040517f08c379a0000000000000000000000000000000000000000000000000000000008152600401611d8e90614af9565b60405180910390fd5b600c5f9054906101000a900460ff1615611de6576040517f08c379a0000000000000000000000000000000000000000000000000000000008152600401611ddd90614efb565b60405180910390fd5b600d5f3373ffffffffffffffffffffffffffffffffffffffff1673ffffffffffffffffffffffffffffffffffffffff1681526020019081526020015f205f9054906101000a900460ff1615611e70576040517f08c379a0000000000000000000000000000000000000000000000000000000008152600401611e6790614f63565b60405180910390fd5b5f8211611eb2576040517f08c379a0000000000000000000000000000000000000000000000000000000008152600401611ea990615363565b60405180910390fd5b5f600a5f3373ffffffffffffffffffffffffffffffffffffffff1673ffffffffffffffffffffffffffffffffffffffff1681526020019081526020015f205f8573ffffffffffffffffffffffffffffffffffffffff1673ffffffffffffffffffffffffffffffffffffffff1681526020019081526020015f209050607881600201541015611f75576040517f08c379a0000000000000000000000000000000000000000000000000000000008152600401611f6c906153cb565b60405180910390fd5b5f611f8033866132b5565b905080848360010154611f939190614e7e565b1115611fd4576040517f08c379a0000000000000000000000000000000000000000000000000000000008152600401611fcb90615433565b60405180910390fd5b83826001015f828254611fe79190614e7e565b92505081905550611ff83385614410565b3373ffffffffffffffffffffffffffffffffffffffff167f0f6798a560793a54c3bcfe86a93cde1e73087d944c0ea20544137d41213968858560405161203e9190614706565b60405180910390a250505060016006819055505050565b61205e8161179e565b50565b600a602052815f5260405f20602052805f5260405f205f9150915050805f0154908060010154908060020154905083565b600b602052805f5260405f205f915090505481565b600c5f9054906101000a900460ff1681565b5f805f8373ffffffffffffffffffffffffffffffffffffffff1673ffffffffffffffffffffffffffffffffffffffff1681526020019081526020015f20549050919050565b600560019054906101000a900473ffffffffffffffffffffffffffffffffffffffff1673ffffffffffffffffffffffffffffffffffffffff163373ffffffffffffffffffffffffffffffffffffffff161461218e576040517f08c379a00000000000000000000000000000000000000000000000000000000081526004016121859061493b565b60405180910390fd5b5f73ffffffffffffffffffffffffffffffffffffffff16600560019054906101000a900473ffffffffffffffffffffffffffffffffffffffff1673ffffffffffffffffffffffffffffffffffffffff167f8be0079c531659141344cd1fd0a4f28419497f9722a3daafe3b4186f6b6457e060405160405180910390a35f600560016101000a81548173ffffffffffffffffffffffffffffffffffffffff021916908373ffffffffffffffffffffffffffffffffffffffff160217905550565b600560019054906101000a900473ffffffffffffffffffffffffffffffffffffffff1673ffffffffffffffffffffffffffffffffffffffff163373ffffffffffffffffffffffffffffffffffffffff16146122dd576040517f08c379a00000000000000000000000000000000000000000000000000000000081526004016122d49061493b565b60405180910390fd5b5f73ffffffffffffffffffffffffffffffffffffffff168273ffffffffffffffffffffffffffffffffffffffff160361234b576040517f08c379a00000000000000000000000000000000000000000000000000000000081526004016123429061549b565b60405180910390fd5b5f811161238d576040517f08c379a000000000000000000000000000000000000000000000000000000000815260040161238490615503565b60405180910390fd5b80600b5f8573ffffffffffffffffffffffffffffffffffffffff1673ffffffffffffffffffffffffffffffffffffffff1681526020019081526020015f2054101561240d576040517f08c379a00000000000000000000000000000000000000000000000000000000081526004016124049061556b565b60405180910390fd5b80600b5f8573ffffffffffffffffffffffffffffffffffffffff1673ffffffffffffffffffffffffffffffffffffffff1681526020019081526020015f205f8282546124599190614a14565b925050819055508273ffffffffffffffffffffffffffffffffffffffff1663a9059cbb83836040518363ffffffff1660e01b815260040161249b929190614e57565b6020604051808303815f875af11580156124b7573d5f803e3d5ffd5b505050506040513d601f19601f820116820180604052508101906124db9190614e2c565b50505050565b600560019054906101000a900473ffffffffffffffffffffffffffffffffffffffff1673ffffffffffffffffffffffffffffffffffffffff163373ffffffffffffffffffffffffffffffffffffffff1614612571576040517f08c379a00000000000000000000000000000000000000000000000000000000081526004016125689061493b565b60405180910390fd5b60085f8273ffffffffffffffffffffffffffffffffffffffff1673ffffffffffffffffffffffffffffffffffffffff1681526020019081526020015f205f9054906101000a900460ff166125fa576040517f08c379a00000000000000000000000000000000000000000000000000000000081526004016125f1906155d3565b60405180910390fd5b5f60085f8373ffffffffffffffffffffffffffffffffffffffff1673ffffffffffffffffffffffffffffffffffffffff1681526020019081526020015f205f6101000a81548160ff0219169083151502179055505f60075f8373ffffffffffffffffffffffffffffffffffffffff1673ffffffffffffffffffffffffffffffffffffffff1681526020019081526020015f205f6101000a81548173ffffffffffffffffffffffffffffffffffffffff021916908373ffffffffffffffffffffffffffffffffffffffff1602179055505f5b600980549050811015612848578173ffffffffffffffffffffffffffffffffffffffff1660098281548110612703576127026152a5565b5b905f5260205f20015f9054906101000a900473ffffffffffffffffffffffffffffffffffffffff1673ffffffffffffffffffffffffffffffffffffffff1603612835576009600160098054905061275a9190614a14565b8154811061276b5761276a6152a5565b5b905f5260205f20015f9054906101000a900473ffffffffffffffffffffffffffffffffffffffff16600982815481106127a7576127a66152a5565b5b905f5260205f20015f6101000a81548173ffffffffffffffffffffffffffffffffffffffff021916908373ffffffffffffffffffffffffffffffffffffffff16021790555060098054806127fe576127fd6155f1565b5b600190038181905f5260205f20015f6101000a81549073ffffffffffffffffffffffffffffffffffffffff02191690559055612848565b8080612840906152d2565b9150506126cb565b5050565b5f80600a5f8573ffffffffffffffffffffffffffffffffffffffff1673ffffffffffffffffffffffffffffffffffffffff1681526020019081526020015f205f8473ffffffffffffffffffffffffffffffffffffffff1673ffffffffffffffffffffffffffffffffffffffff1681526020019081526020015f2090505f816001015414806128dc57505f815f0154145b156128ea575f9150506129a9565b5f8373ffffffffffffffffffffffffffffffffffffffff1663313ce5676040518163ffffffff1660e01b8152600401602060405180830381865afa158015612934573d5f803e3d5ffd5b505050506040513d601f19601f820116820180604052508101906129589190615648565b90505f6064606e846001015461296e9190614c4f565b6129789190614cbd565b9050825f01548260ff16600a61298e91906157a2565b826129999190614c4f565b6129a39190614cbd565b93505050505b92915050565b607881565b600560019054906101000a900473ffffffffffffffffffffffffffffffffffffffff1673ffffffffffffffffffffffffffffffffffffffff163373ffffffffffffffffffffffffffffffffffffffff1614612a44576040517f08c379a0000000000000000000000000000000000000000000000000000000008152600401612a3b9061493b565b60405180910390fd5b6001600c5f6101000a81548160ff021916908315150217905550565b5f600560019054906101000a900473ffffffffffffffffffffffffffffffffffffffff16905090565b606e81565b606060048054612a9d906148c1565b80601f0160208091040260200160405190810160405280929190818152602001828054612ac9906148c1565b8015612b145780601f10612aeb57610100808354040283529160200191612b14565b820191905f5260205f20905b815481529060010190602001808311612af757829003601f168201915b5050505050905090565b600160065414612b63576040517f08c379a0000000000000000000000000000000000000000000000000000000008152600401612b5a90614a91565b60405180910390fd5b60026006819055508160085f8273ffffffffffffffffffffffffffffffffffffffff1673ffffffffffffffffffffffffffffffffffffffff1681526020019081526020015f205f9054906101000a900460ff16612bf5576040517f08c379a0000000000000000000000000000000000000000000000000000000008152600401612bec90614af9565b60405180910390fd5b600c5f9054906101000a900460ff1615612c44576040517f08c379a0000000000000000000000000000000000000000000000000000000008152600401612c3b90614efb565b60405180910390fd5b600d5f3373ffffffffffffffffffffffffffffffffffffffff1673ffffffffffffffffffffffffffffffffffffffff1681526020019081526020015f205f9054906101000a900460ff1615612cce576040517f08c379a0000000000000000000000000000000000000000000000000000000008152600401612cc590614f63565b60405180910390fd5b5f8211612d10576040517f08c379a0000000000000000000000000000000000000000000000000000000008152600401612d0790615836565b60405180910390fd5b8273ffffffffffffffffffffffffffffffffffffffff166323b872dd3330856040518463ffffffff1660e01b8152600401612d4d93929190614de3565b6020604051808303815f875af1158015612d69573d5f803e3d5ffd5b505050506040513d601f19601f82011682018060405250810190612d8d9190614e2c565b5081600a5f3373ffffffffffffffffffffffffffffffffffffffff1673ffffffffffffffffffffffffffffffffffffffff1681526020019081526020015f205f8573ffffffffffffffffffffffffffffffffffffffff1673ffffffffffffffffffffffffffffffffffffffff1681526020019081526020015f205f015f828254612e179190614e7e565b925050819055508273ffffffffffffffffffffffffffffffffffffffff163373ffffffffffffffffffffffffffffffffffffffff167f5548c837ab068cf56a2c2479df0882a4922fd203edb7517321831d95078c5f6284604051612e7b9190614706565b60405180910390a35060016006819055505050565b5f612e9c338484613a8b565b6001905092915050565b600181565b5f805f80600a5f8773ffffffffffffffffffffffffffffffffffffffff1673ffffffffffffffffffffffffffffffffffffffff1681526020019081526020015f205f8673ffffffffffffffffffffffffffffffffffffffff1673ffffffffffffffffffffffffffffffffffffffff1681526020019081526020015f209050805f015481600101548260020154935093509350509250925092565b600560019054906101000a900473ffffffffffffffffffffffffffffffffffffffff1673ffffffffffffffffffffffffffffffffffffffff163373ffffffffffffffffffffffffffffffffffffffff1614612fd5576040517f08c379a0000000000000000000000000000000000000000000000000000000008152600401612fcc9061493b565b60405180910390fd5b60085f8373ffffffffffffffffffffffffffffffffffffffff1673ffffffffffffffffffffffffffffffffffffffff1681526020019081526020015f205f9054906101000a900460ff161561305f576040517f08c379a00000000000000000000000000000000000000000000000000000000081526004016130569061589e565b60405180910390fd5b600160085f8473ffffffffffffffffffffffffffffffffffffffff1673ffffffffffffffffffffffffffffffffffffffff1681526020019081526020015f205f6101000a81548160ff0219169083151502179055508060075f8473ffffffffffffffffffffffffffffffffffffffff1673ffffffffffffffffffffffffffffffffffffffff1681526020019081526020015f205f6101000a81548173ffffffffffffffffffffffffffffffffffffffff021916908373ffffffffffffffffffffffffffffffffffffffff160217905550600982908060018154018082558091505060019003905f5260205f20015f9091909190916101000a81548173ffffffffffffffffffffffffffffffffffffffff021916908373ffffffffffffffffffffffffffffffffffffffff1602179055505050565b600981815481106131a2575f80fd5b905f5260205f20015f915054906101000a900473ffffffffffffffffffffffffffffffffffffffff1681565b5f80600a5f8573ffffffffffffffffffffffffffffffffffffffff1673ffffffffffffffffffffffffffffffffffffffff1681526020019081526020015f205f8473ffffffffffffffffffffffffffffffffffffffff1673ffffffffffffffffffffffffffffffffffffffff1681526020019081526020015f2090505f81600101540361327e577fffffffffffffffffffffffffffffffffffffffffffffffffffffffffffffffff9150506132af565b5f61328c84835f0154613c18565b905081600101546064826132a09190614c4f565b6132aa9190614cbd565b925050505b92915050565b5f8160085f8273ffffffffffffffffffffffffffffffffffffffff1673ffffffffffffffffffffffffffffffffffffffff1681526020019081526020015f205f9054906101000a900460ff16613340576040517f08c379a000000000000000000000000000000000000000000000000000000000815260040161333790614af9565b60405180910390fd5b5f600a5f8673ffffffffffffffffffffffffffffffffffffffff1673ffffffffffffffffffffffffffffffffffffffff1681526020019081526020015f205f8573ffffffffffffffffffffffffffffffffffffffff1673ffffffffffffffffffffffffffffffffffffffff1681526020019081526020015f2090505f815f015414806133cf57505f8160020154145b156133dd575f92505061340e565b5f6133eb85835f0154613c18565b905081600201546064826133ff9190614c4f565b6134099190614cbd565b935050505b5092915050565b600d602052805f5260405f205f915054906101000a900460ff1681565b5f60015f8473ffffffffffffffffffffffffffffffffffffffff1673ffffffffffffffffffffffffffffffffffffffff1681526020019081526020015f205f8373ffffffffffffffffffffffffffffffffffffffff1673ffffffffffffffffffffffffffffffffffffffff1681526020019081526020015f2054905092915050565b600560019054906101000a900473ffffffffffffffffffffffffffffffffffffffff1673ffffffffffffffffffffffffffffffffffffffff163373ffffffffffffffffffffffffffffffffffffffff1614613544576040517f08c379a000000000000000000000000000000000000000000000000000000000815260040161353b9061493b565b60405180910390fd5b5f73ffffffffffffffffffffffffffffffffffffffff168273ffffffffffffffffffffffffffffffffffffffff16036135b2576040517f08c379a00000000000000000000000000000000000000000000000000000000081526004016135a990615906565b60405180910390fd5b5f81116135f4576040517f08c379a00000000000000000000000000000000000000000000000000000000081526004016135eb9061596e565b60405180910390fd5b5f8373ffffffffffffffffffffffffffffffffffffffff166370a08231306040518263ffffffff1660e01b815260040161362e9190614759565b602060405180830381865afa158015613649573d5f803e3d5ffd5b505050506040513d601f19601f8201168201806040525081019061366d91906159a0565b90505f600b5f8673ffffffffffffffffffffffffffffffffffffffff1673ffffffffffffffffffffffffffffffffffffffff1681526020019081526020015f20549050808210156136f3576040517f08c379a00000000000000000000000000000000000000000000000000000000081526004016136ea90615a15565b60405180910390fd5b5f81836137009190614a14565b905080841115613745576040517f08c379a000000000000000000000000000000000000000000000000000000000815260040161373c90615a7d565b60405180910390fd5b8573ffffffffffffffffffffffffffffffffffffffff1663a9059cbb86866040518363ffffffff1660e01b8152600401613780929190614e57565b6020604051808303815f875af115801561379c573d5f803e3d5ffd5b505050506040513d601f19601f820116820180604052508101906137c09190614e2c565b50505050505050565b600560019054906101000a900473ffffffffffffffffffffffffffffffffffffffff1673ffffffffffffffffffffffffffffffffffffffff163373ffffffffffffffffffffffffffffffffffffffff1614613859576040517f08c379a00000000000000000000000000000000000000000000000000000000081526004016138509061493b565b60405180910390fd5b5f73ffffffffffffffffffffffffffffffffffffffff168173ffffffffffffffffffffffffffffffffffffffff16036138c7576040517f08c379a00000000000000000000000000000000000000000000000000000000081526004016138be90615b0b565b60405180910390fd5b8073ffffffffffffffffffffffffffffffffffffffff16600560019054906101000a900473ffffffffffffffffffffffffffffffffffffffff1673ffffffffffffffffffffffffffffffffffffffff167f8be0079c531659141344cd1fd0a4f28419497f9722a3daafe3b4186f6b6457e060405160405180910390a380600560016101000a81548173ffffffffffffffffffffffffffffffffffffffff021916908373ffffffffffffffffffffffffffffffffffffffff16021790555050565b6008602052805f5260405f205f915054906101000a900460ff1681565b8060015f8573ffffffffffffffffffffffffffffffffffffffff1673ffffffffffffffffffffffffffffffffffffffff1681526020019081526020015f205f8473ffffffffffffffffffffffffffffffffffffffff1673ffffffffffffffffffffffffffffffffffffffff1681526020019081526020015f20819055508173ffffffffffffffffffffffffffffffffffffffff168373ffffffffffffffffffffffffffffffffffffffff167f8c5be1e5ebec7d5bd14f71427d1e84f3dd0314c0f7b2291e5b200ac8c7c3b92583604051613a7e9190614706565b60405180910390a3505050565b805f808573ffffffffffffffffffffffffffffffffffffffff1673ffffffffffffffffffffffffffffffffffffffff1681526020019081526020015f20541015613b0a576040517f08c379a0000000000000000000000000000000000000000000000000000000008152600401613b0190615b99565b60405180910390fd5b805f808573ffffffffffffffffffffffffffffffffffffffff1673ffffffffffffffffffffffffffffffffffffffff1681526020019081526020015f205f828254613b559190614a14565b92505081905550805f808473ffffffffffffffffffffffffffffffffffffffff1673ffffffffffffffffffffffffffffffffffffffff1681526020019081526020015f205f828254613ba79190614e7e565b925050819055508173ffffffffffffffffffffffffffffffffffffffff168373ffffffffffffffffffffffffffffffffffffffff167fddf252ad1be2c89b69c2b068fc378daa952ba7f163c4a11628f55a4df523b3ef83604051613c0b9190614706565b60405180910390a3505050565b5f8060075f8573ffffffffffffffffffffffffffffffffffffffff1673ffffffffffffffffffffffffffffffffffffffff1681526020019081526020015f205f9054906101000a900473ffffffffffffffffffffffffffffffffffffffff1690505f73ffffffffffffffffffffffffffffffffffffffff168173ffffffffffffffffffffffffffffffffffffffff1603613ce7576040517f08c379a0000000000000000000000000000000000000000000000000000000008152600401613cde90615c01565b60405180910390fd5b5f808273ffffffffffffffffffffffffffffffffffffffff1663feaf968c6040518163ffffffff1660e01b815260040160a060405180830381865afa158015613d32573d5f803e3d5ffd5b505050506040513d601f19601f82011682018060405250810190613d569190615c91565b509350509250505f8213613d9f576040517f08c379a0000000000000000000000000000000000000000000000000000000008152600401613d9690615d52565b60405180910390fd5b5f8373ffffffffffffffffffffffffffffffffffffffff1663313ce5676040518163ffffffff1660e01b8152600401602060405180830381865afa158015613de9573d5f803e3d5ffd5b505050506040513d601f19601f82011682018060405250810190613e0d9190615648565b90505f816012613e1d9190615d70565b600a613e299190615da4565b84613e349190614c4f565b90505f8873ffffffffffffffffffffffffffffffffffffffff1663313ce5676040518163ffffffff1660e01b8152600401602060405180830381865afa158015613e80573d5f803e3d5ffd5b505050506040513d601f19601f82011682018060405250810190613ea49190615648565b905080600a613eb39190615da4565b8289613ebf9190614c4f565b613ec99190614cbd565b965050505050505092915050565b5f805f8060075f8873ffffffffffffffffffffffffffffffffffffffff1673ffffffffffffffffffffffffffffffffffffffff1681526020019081526020015f205f9054906101000a900473ffffffffffffffffffffffffffffffffffffffff1690505f8173ffffffffffffffffffffffffffffffffffffffff1663feaf968c6040518163ffffffff1660e01b815260040160a060405180830381865afa158015613f84573d5f803e3d5ffd5b505050506040513d601f19601f82011682018060405250810190613fa89190615c91565b5050509150505f8273ffffffffffffffffffffffffffffffffffffffff1663313ce5676040518163ffffffff1660e01b8152600401602060405180830381865afa158015613ff8573d5f803e3d5ffd5b505050506040513d601f19601f8201168201806040525081019061401c9190615648565b60126140289190615d70565b600a6140349190615da4565b8261403f9190614c4f565b90505f8973ffffffffffffffffffffffffffffffffffffffff1663313ce5676040518163ffffffff1660e01b8152600401602060405180830381865afa15801561408b573d5f803e3d5ffd5b505050506040513d601f19601f820116820180604052508101906140af9190615648565b60ff16600a6140be91906157a2565b90505f82828b6140ce9190614c4f565b6140d89190614cbd565b90505f60646001836140ea9190614c4f565b6140f49190614cbd565b826140ff9190614e7e565b905089811115614134578990505f83858c61411a9190614c4f565b6141249190614cbd565b90508b81101561413257809b505b505b5f60646001836141449190614c4f565b61414e9190614cbd565b90508b82829950995099505050505050505093509350939050565b805f808473ffffffffffffffffffffffffffffffffffffffff1673ffffffffffffffffffffffffffffffffffffffff1681526020019081526020015f205410156141e8576040517f08c379a00000000000000000000000000000000000000000000000000000000081526004016141df90615e5e565b60405180910390fd5b805f808473ffffffffffffffffffffffffffffffffffffffff1673ffffffffffffffffffffffffffffffffffffffff1681526020019081526020015f205f8282546142339190614a14565b925050819055508060025f82825461424b9190614a14565b925050819055505f73ffffffffffffffffffffffffffffffffffffffff168273ffffffffffffffffffffffffffffffffffffffff167fddf252ad1be2c89b69c2b068fc378daa952ba7f163c4a11628f55a4df523b3ef836040516142af9190614706565b60405180910390a35050565b5f80600980548060200260200160405190810160405280929190818152602001828054801561433c57602002820191905f5260205f20905b815f9054906101000a900473ffffffffffffffffffffffffffffffffffffffff1673ffffffffffffffffffffffffffffffffffffffff16815260200190600101908083116142f3575b505050505090505f805b825181101561440557600a5f8673ffffffffffffffffffffffffffffffffffffffff1673ffffffffffffffffffffffffffffffffffffffff1681526020019081526020015f205f8483815181106143a05761439f6152a5565b5b602002602001015173ffffffffffffffffffffffffffffffffffffffff1673ffffffffffffffffffffffffffffffffffffffff1681526020019081526020015f2060010154826143f09190614e7e565b915080806143fd906152d2565b915050614346565b508092505050919050565b8060025f8282546144219190614e7e565b92505081905550805f808473ffffffffffffffffffffffffffffffffffffffff1673ffffffffffffffffffffffffffffffffffffffff1681526020019081526020015f205f8282546144739190614e7e565b925050819055508173ffffffffffffffffffffffffffffffffffffffff165f73ffffffffffffffffffffffffffffffffffffffff167fddf252ad1be2c89b69c2b068fc378daa952ba7f163c4a11628f55a4df523b3ef836040516144d79190614706565b60405180910390a35050565b5f81519050919050565b5f82825260208201905092915050565b5f5b8381101561451a5780820151818401526020810190506144ff565b5f8484015250505050565b5f601f19601f8301169050919050565b5f61453f826144e3565b61454981856144ed565b93506145598185602086016144fd565b61456281614525565b840191505092915050565b5f6020820190508181035f8301526145858184614535565b905092915050565b5f80fd5b5f73ffffffffffffffffffffffffffffffffffffffff82169050919050565b5f6145ba82614591565b9050919050565b6145ca816145b0565b81146145d4575f80fd5b50565b5f813590506145e5816145c1565b92915050565b5f819050919050565b6145fd816145eb565b8114614607575f80fd5b50565b5f81359050614618816145f4565b92915050565b5f80604083850312156146345761463361458d565b5b5f614641858286016145d7565b92505060206146528582860161460a565b9150509250929050565b5f8115159050919050565b6146708161465c565b82525050565b5f6020820190506146895f830184614667565b92915050565b6146988161465c565b81146146a2575f80fd5b50565b5f813590506146b38161468f565b92915050565b5f80604083850312156146cf576146ce61458d565b5b5f6146dc858286016145d7565b92505060206146ed858286016146a5565b9150509250929050565b614700816145eb565b82525050565b5f6020820190506147195f8301846146f7565b92915050565b5f602082840312156147345761473361458d565b5b5f614741848285016145d7565b91505092915050565b614753816145b0565b82525050565b5f60208201905061476c5f83018461474a565b92915050565b5f805f606084860312156147895761478861458d565b5b5f614796868287016145d7565b93505060206147a7868287016145d7565b92505060406147b88682870161460a565b9150509250925092565b5f60ff82169050919050565b6147d7816147c2565b82525050565b5f6020820190506147f05f8301846147ce565b92915050565b5f6020828403121561480b5761480a61458d565b5b5f6148188482850161460a565b91505092915050565b5f80604083850312156148375761483661458d565b5b5f614844858286016145d7565b9250506020614855858286016145d7565b9150509250929050565b5f6060820190506148725f8301866146f7565b61487f60208301856146f7565b61488c60408301846146f7565b949350505050565b7f4e487b71000000000000000000000000000000000000000000000000000000005f52602260045260245ffd5b5f60028204905060018216806148d857607f821691505b6020821081036148eb576148ea614894565b5b50919050565b7f4f776e61626c653a2063616c6c6572206973206e6f7420746865206f776e65725f82015250565b5f6149256020836144ed565b9150614930826148f1565b602082019050919050565b5f6020820190508181035f83015261495281614919565b9050919050565b7f45524332303a207472616e7366657220616d6f756e74206578636565647320615f8201527f6c6c6f77616e6365000000000000000000000000000000000000000000000000602082015250565b5f6149b36028836144ed565b91506149be82614959565b604082019050919050565b5f6020820190508181035f8301526149e0816149a7565b9050919050565b7f4e487b71000000000000000000000000000000000000000000000000000000005f52601160045260245ffd5b5f614a1e826145eb565b9150614a29836145eb565b9250828203905081811115614a4157614a406149e7565b5b92915050565b7f5265656e7472616e637947756172643a207265656e7472616e742063616c6c005f82015250565b5f614a7b601f836144ed565b9150614a8682614a47565b602082019050919050565b5f6020820190508181035f830152614aa881614a6f565b9050919050565b7f756e737570706f7274656420636f6c6c61746572616c000000000000000000005f82015250565b5f614ae36016836144ed565b9150614aee82614aaf565b602082019050919050565b5f6020820190508181035f830152614b1081614ad7565b9050919050565b7f6c69717569646174653a2072657061793e3000000000000000000000000000005f82015250565b5f614b4b6012836144ed565b9150614b5682614b17565b602082019050919050565b5f6020820190508181035f830152614b7881614b3f565b9050919050565b7f6c69717569646174653a206e6f206465627400000000000000000000000000005f82015250565b5f614bb36012836144ed565b9150614bbe82614b7f565b602082019050919050565b5f6020820190508181035f830152614be081614ba7565b9050919050565b7f6c69717569646174653a2072657061793e6465627400000000000000000000005f82015250565b5f614c1b6015836144ed565b9150614c2682614be7565b602082019050919050565b5f6020820190508181035f830152614c4881614c0f565b9050919050565b5f614c59826145eb565b9150614c64836145eb565b9250828202614c72816145eb565b91508282048414831517614c8957614c886149e7565b5b5092915050565b7f4e487b71000000000000000000000000000000000000000000000000000000005f52601260045260245ffd5b5f614cc7826145eb565b9150614cd2836145eb565b925082614ce257614ce1614c90565b5b828204905092915050565b7f6c69717569646174653a206e6f7420656c696769626c650000000000000000005f82015250565b5f614d216017836144ed565b9150614d2c82614ced565b602082019050919050565b5f6020820190508181035f830152614d4e81614d15565b9050919050565b7f6c69717569646174653a20616c6c6f77616e636520696e73756666696369656e5f8201527f7400000000000000000000000000000000000000000000000000000000000000602082015250565b5f614daf6021836144ed565b9150614dba82614d55565b604082019050919050565b5f6020820190508181035f830152614ddc81614da3565b9050919050565b5f606082019050614df65f83018661474a565b614e03602083018561474a565b614e1060408301846146f7565b949350505050565b5f81519050614e268161468f565b92915050565b5f60208284031215614e4157614e4061458d565b5b5f614e4e84828501614e18565b91505092915050565b5f604082019050614e6a5f83018561474a565b614e7760208301846146f7565b9392505050565b5f614e88826145eb565b9150614e93836145eb565b9250828201905080821115614eab57614eaa6149e7565b5b92915050565b7f70617573656400000000000000000000000000000000000000000000000000005f82015250565b5f614ee56006836144ed565b9150614ef082614eb1565b602082019050919050565b5f6020820190508181035f830152614f1281614ed9565b9050919050565b7f626c61636b6c69737465640000000000000000000000000000000000000000005f82015250565b5f614f4d600b836144ed565b9150614f5882614f19565b602082019050919050565b5f6020820190508181035f830152614f7a81614f41565b9050919050565b7f77697468647261773a20616d6f756e743e3000000000000000000000000000005f82015250565b5f614fb56012836144ed565b9150614fc082614f81565b602082019050919050565b5f6020820190508181035f830152614fe281614fa9565b9050919050565b7f77697468647261773a20696e73756666696369656e7420636f6c6c61746572615f8201527f6c00000000000000000000000000000000000000000000000000000000000000602082015250565b5f6150436021836144ed565b915061504e82614fe9565b604082019050919050565b5f6020820190508181035f83015261507081615037565b9050919050565b7f77697468647261773a20756e6465722d636f6c6c61746572616c697a656400005f82015250565b5f6150ab601e836144ed565b91506150b682615077565b602082019050919050565b5f6020820190508181035f8301526150d88161509f565b9050919050565b7f736574526174696f3a20726174696f20746f6f206c6f770000000000000000005f82015250565b5f6151136017836144ed565b915061511e826150df565b602082019050919050565b5f6020820190508181035f83015261514081615107565b9050919050565b7f736574526174696f3a2063757272656e7420706f736974696f6e20756e7361665f8201527f6500000000000000000000000000000000000000000000000000000000000000602082015250565b5f6151a16021836144ed565b91506151ac82615147565b604082019050919050565b5f6020820190508181035f8301526151ce81615195565b9050919050565b7f72657061793a20616d6f756e743e3000000000000000000000000000000000005f82015250565b5f615209600f836144ed565b9150615214826151d5565b602082019050919050565b5f6020820190508181035f830152615236816151fd565b9050919050565b7f72657061793a20616d6f756e743e6465627400000000000000000000000000005f82015250565b5f6152716012836144ed565b915061527c8261523d565b602082019050919050565b5f6020820190508181035f83015261529e81615265565b9050919050565b7f4e487b71000000000000000000000000000000000000000000000000000000005f52603260045260245ffd5b5f6152dc826145eb565b91507fffffffffffffffffffffffffffffffffffffffffffffffffffffffffffffffff820361530e5761530d6149e7565b5b600182019050919050565b7f6d696e743a20616d6f756e743e300000000000000000000000000000000000005f82015250565b5f61534d600e836144ed565b915061535882615319565b602082019050919050565b5f6020820190508181035f83015261537a81615341565b9050919050565b7f6d696e743a2073657420726174696f20666972737400000000000000000000005f82015250565b5f6153b56015836144ed565b91506153c082615381565b602082019050919050565b5f6020820190508181035f8301526153e2816153a9565b9050919050565b7f6d696e743a206578636565647320616c6c6f776564206d696e740000000000005f82015250565b5f61541d601a836144ed565b9150615428826153e9565b602082019050919050565b5f6020820190508181035f83015261544a81615411565b9050919050565b7f74726561737572793a20696e76616c696420746f0000000000000000000000005f82015250565b5f6154856014836144ed565b915061549082615451565b602082019050919050565b5f6020820190508181035f8301526154b281615479565b9050919050565b7f74726561737572793a20616d6f756e743e3000000000000000000000000000005f82015250565b5f6154ed6012836144ed565b91506154f8826154b9565b602082019050919050565b5f6020820190508181035f83015261551a816154e1565b9050919050565b7f74726561737572793a20696e73756666696369656e742062616c616e636500005f82015250565b5f615555601e836144ed565b915061556082615521565b602082019050919050565b5f6020820190508181035f83015261558281615549565b9050919050565b7f6e6f7420737570706f72746564000000000000000000000000000000000000005f82015250565b5f6155bd600d836144ed565b91506155c882615589565b602082019050919050565b5f6020820190508181035f8301526155ea816155b1565b9050919050565b7f4e487b71000000000000000000000000000000000000000000000000000000005f52603160045260245ffd5b615627816147c2565b8114615631575f80fd5b50565b5f815190506156428161561e565b92915050565b5f6020828403121561565d5761565c61458d565b5b5f61566a84828501615634565b91505092915050565b5f8160011c9050919050565b5f808291508390505b60018511156156c8578086048111156156a4576156a36149e7565b5b60018516156156b35780820291505b80810290506156c185615673565b9450615688565b94509492505050565b5f826156e0576001905061579b565b816156ed575f905061579b565b8160018114615703576002811461570d5761573c565b600191505061579b565b60ff84111561571f5761571e6149e7565b5b8360020a915084821115615736576157356149e7565b5b5061579b565b5060208310610133831016604e8410600b84101617156157715782820a90508381111561576c5761576b6149e7565b5b61579b565b61577e848484600161567f565b92509050818404811115615795576157946149e7565b5b81810290505b9392505050565b5f6157ac826145eb565b91506157b7836145eb565b92506157e47fffffffffffffffffffffffffffffffffffffffffffffffffffffffffffffffff84846156d1565b905092915050565b7f6465706f7369743a20616d6f756e743e300000000000000000000000000000005f82015250565b5f6158206011836144ed565b915061582b826157ec565b602082019050919050565b5f6020820190508181035f83015261584d81615814565b9050919050565b7f616c726561647920737570706f727465640000000000000000000000000000005f82015250565b5f6158886011836144ed565b915061589382615854565b602082019050919050565b5f6020820190508181035f8301526158b58161587c565b9050919050565b7f656d657267656e63793a20696e76616c696420746f00000000000000000000005f82015250565b5f6158f06015836144ed565b91506158fb826158bc565b602082019050919050565b5f6020820190508181035f83015261591d816158e4565b9050919050565b7f656d657267656e63793a20616d6f756e743e30000000000000000000000000005f82015250565b5f6159586013836144ed565b915061596382615924565b602082019050919050565b5f6020820190508181035f8301526159858161594c565b9050919050565b5f8151905061599a816145f4565b92915050565b5f602082840312156159b5576159b461458d565b5b5f6159c28482850161598c565b91505092915050565b7f656d657267656e63793a2072657365727665643e68656c6400000000000000005f82015250565b5f6159ff6018836144ed565b9150615a0a826159cb565b602082019050919050565b5f6020820190508181035f830152615a2c816159f3565b9050919050565b7f656d657267656e63793a20616d6f756e743e617661696c61626c6500000000005f82015250565b5f615a67601b836144ed565b9150615a7282615a33565b602082019050919050565b5f6020820190508181035f830152615a9481615a5b565b9050919050565b7f4f776e61626c653a206e6577206f776e657220697320746865207a65726f20615f8201527f6464726573730000000000000000000000000000000000000000000000000000602082015250565b5f615af56026836144ed565b9150615b0082615a9b565b604082019050919050565b5f6020820190508181035f830152615b2281615ae9565b9050919050565b7f45524332303a207472616e7366657220616d6f756e74206578636565647320625f8201527f616c616e63650000000000000000000000000000000000000000000000000000602082015250565b5f615b836026836144ed565b9150615b8e82615b29565b604082019050919050565b5f6020820190508181035f830152615bb081615b77565b9050919050565b7f6e6f2070726963652066656564000000000000000000000000000000000000005f82015250565b5f615beb600d836144ed565b9150615bf682615bb7565b602082019050919050565b5f6020820190508181035f830152615c1881615bdf565b9050919050565b5f69ffffffffffffffffffff82169050919050565b615c3d81615c1f565b8114615c47575f80fd5b50565b5f81519050615c5881615c34565b92915050565b5f819050919050565b615c7081615c5e565b8114615c7a575f80fd5b50565b5f81519050615c8b81615c67565b92915050565b5f805f805f60a08688031215615caa57615ca961458d565b5b5f615cb788828901615c4a565b9550506020615cc888828901615c7d565b9450506040615cd98882890161598c565b9350506060615cea8882890161598c565b9250506080615cfb88828901615c4a565b9150509295509295909350565b7f696e76616c6964207072696365000000000000000000000000000000000000005f82015250565b5f615d3c600d836144ed565b9150615d4782615d08565b602082019050919050565b5f6020820190508181035f830152615d6981615d30565b9050919050565b5f615d7a826147c2565b9150615d85836147c2565b9250828203905060ff811115615d9e57615d9d6149e7565b5b92915050565b5f615dae826145eb565b9150615db9836147c2565b9250615de67fffffffffffffffffffffffffffffffffffffffffffffffffffffffffffffffff84846156d1565b905092915050565b7f45524332303a206275726e20616d6f756e7420657863656564732062616c616e5f8201527f6365000000000000000000000000000000000000000000000000000000000000602082015250565b5f615e486022836144ed565b9150615e5382615dee565b604082019050919050565b5f6020820190508181035f830152615e7581615e3c565b905091905056fea26469706673582212207a7f6d314a740385521e0039b69b2b19d3474ec4948239ad6af34802b48192ae64736f6c63430008140033","linkReferences":{}},"methodIdentifiers":{"LIQUIDATION_BONUS()":"3574d4c4","LIQUIDATION_FEE()":"b1827330","LIQUIDATION_THRESHOLD()":"90a8ae9b","MIN_COLLATERAL_RATIO()":"7a9fffb7","addSupportedToken(address,address)":"c2b7be16","allowance(address,address)":"dd62ed3e","approve(address,uint256)":"095ea7b3","balanceOf(address)":"70a08231","blacklisted(address)":"dbac26e9","burn(uint256)":"42966c68","decimals()":"313ce567","depositCollateral(address,uint256)":"a5d5db0c","emergencyWithdraw(address,address,uint256)":"e63ea408","estimatedLiquidationPrice(address,address)":"76d919d1","getPosition(address,address)":"b33dc190","healthRatio(address,address)":"d394dd9c","liquidate(address,address,uint256)":"26c01303","maxMintable(address,address)":"d825183d","mint(address,uint256)":"40c10f19","name()":"06fdde03","owner()":"8da5cb5b","pause()":"8456cb59","paused()":"5c975abb","positions(address,address)":"4bd21445","priceFeed(address)":"1fd48b9a","removeSupportedToken(address)":"76319190","renounceOwnership()":"715018a6","repay(uint256)":"371fd8e6","setBlacklist(address,bool)":"153b0d1e","setCollateralizationRatio(address,uint256)":"35deba68","supportedCollateral(address)":"fa550eba","supportedTokens(uint256)":"c6255626","symbol()":"95d89b41","totalSupply()":"18160ddd","transfer(address,uint256)":"a9059cbb","transferFrom(address,address,uint256)":"23b872dd","transferOwnership(address)":"f2fde38b","treasuryBalance(address)":"54445ae6","unpause()":"3f4ba83a","withdrawCollateral(address,uint256)":"350c35e9","withdrawTreasury(address,address,uint256)":"73149daa"},"id":22}