{"abi":[{"type":"constructor","inputs":[{"name":"tokens","type":"address[]","internalType":"address[]"},{"name":"aggregators","type":"address[]","internalType":"address[]"},{"name":"_treasury","type":"address","internalType":"address"}],"stateMutability":"nonpayable"},{"type":"function","name":"LIQUIDATION_BONUS","inputs":[],"outputs":[{"name":"","type":"uint256","internalType":"uint256"}],"stateMutability":"view"},{"type":"function","name":"LIQUIDATION_FEE","inputs":[],"outputs":[{"name":"","type":"uint256","internalType":"uint256"}],"stateMutability":"view"},{"type":"function","name":"LIQUIDATION_THRESHOLD","inputs":[],"outputs":[{"name":"","type":"uint256","internalType":"uint256"}],"stateMutability":"view"},{"type":"function","name":"MIN_COLLATERAL_RATIO","inputs":[],"outputs":[{"name":"","type":"uint256","internalType":"uint256"}],"stateMutability":"view"},{"type":"function","name":"addSupportedToken","inputs":[{"name":"token","type":"address","internalType":"address"},{"name":"agg","type":"address","internalType":"address"}],"outputs":[],"stateMutability":"nonpayable"},{"type":"function","name":"allowance","inputs":[{"name":"","type":"address","internalType":"address"},{"name":"","type":"address","internalType":"address"}],"outputs":[{"name":"","type":"uint256","internalType":"uint256"}],"stateMutability":"view"},{"type":"function","name":"approve","inputs":[{"name":"spender","type":"address","internalType":"address"},{"name":"amount","type":"uint256","internalType":"uint256"}],"outputs":[{"name":"","type":"bool","internalType":"bool"}],"stateMutability":"nonpayable"},{"type":"function","name":"balanceOf","inputs":[{"name":"","type":"address","internalType":"address"}],"outputs":[{"name":"","type":"uint256","internalType":"uint256"}],"stateMutability":"view"},{"type":"function","name":"blacklisted","inputs":[{"name":"","type":"address","internalType":"address"}],"outputs":[{"name":"","type":"bool","internalType":"bool"}],"stateMutability":"view"},{"type":"function","name":"burn","inputs":[{"name":"amount","type":"uint256","internalType":"uint256"}],"outputs":[],"stateMutability":"nonpayable"},{"type":"function","name":"decimals","inputs":[],"outputs":[{"name":"","type":"uint8","internalType":"uint8"}],"stateMutability":"view"},{"type":"function","name":"depositCollateral","inputs":[{"name":"token","type":"address","internalType":"address"},{"name":"amount","type":"uint256","internalType":"uint256"}],"outputs":[],"stateMutability":"nonpayable"},{"type":"function","name":"getPosition","inputs":[{"name":"user","type":"address","internalType":"address"},{"name":"token","type":"address","internalType":"address"}],"outputs":[{"name":"collateralAmount","type":"uint256","internalType":"uint256"},{"name":"debt","type":"uint256","internalType":"uint256"},{"name":"collateralRatioPercent","type":"uint256","internalType":"uint256"}],"stateMutability":"view"},{"type":"function","name":"healthRatio","inputs":[{"name":"user","type":"address","internalType":"address"},{"name":"token","type":"address","internalType":"address"}],"outputs":[{"name":"","type":"uint256","internalType":"uint256"}],"stateMutability":"view"},{"type":"function","name":"liquidate","inputs":[{"name":"user","type":"address","internalType":"address"},{"name":"token","type":"address","internalType":"address"},{"name":"repayAmount","type":"uint256","internalType":"uint256"}],"outputs":[],"stateMutability":"nonpayable"},{"type":"function","name":"maxMintable","inputs":[{"name":"user","type":"address","internalType":"address"},{"name":"token","type":"address","internalType":"address"}],"outputs":[{"name":"","type":"uint256","internalType":"uint256"}],"stateMutability":"view"},{"type":"function","name":"mint","inputs":[{"name":"token","type":"address","internalType":"address"},{"name":"amount","type":"uint256","internalType":"uint256"}],"outputs":[],"stateMutability":"nonpayable"},{"type":"function","name":"name","inputs":[],"outputs":[{"name":"","type":"string","internalType":"string"}],"stateMutability":"view"},{"type":"function","name":"owner","inputs":[],"outputs":[{"name":"","type":"address","internalType":"address"}],"stateMutability":"view"},{"type":"function","name":"pause","inputs":[],"outputs":[],"stateMutability":"nonpayable"},{"type":"function","name":"paused","inputs":[],"outputs":[{"name":"","type":"bool","internalType":"bool"}],"stateMutability":"view"},{"type":"function","name":"positions","inputs":[{"name":"","type":"address","internalType":"address"},{"name":"","type":"address","internalType":"address"}],"outputs":[{"name":"collateralAmount","type":"uint256","internalType":"uint256"},{"name":"debt","type":"uint256","internalType":"uint256"},{"name":"collateralRatio","type":"uint256","internalType":"uint256"}],"stateMutability":"view"},{"type":"function","name":"priceFeed","inputs":[{"name":"","type":"address","internalType":"address"}],"outputs":[{"name":"","type":"address","internalType":"address"}],"stateMutability":"view"},{"type":"function","name":"removeSupportedToken","inputs":[{"name":"token","type":"address","internalType":"address"}],"outputs":[],"stateMutability":"nonpayable"},{"type":"function","name":"repay","inputs":[{"name":"amount","type":"uint256","internalType":"uint256"}],"outputs":[],"stateMutability":"nonpayable"},{"type":"function","name":"setBlacklist","inputs":[{"name":"who","type":"address","internalType":"address"},{"name":"v","type":"bool","internalType":"bool"}],"outputs":[],"stateMutability":"nonpayable"},{"type":"function","name":"setCollateralizationRatio","inputs":[{"name":"token","type":"address","internalType":"address"},{"name":"ratioPercent","type":"uint256","internalType":"uint256"}],"outputs":[],"stateMutability":"nonpayable"},{"type":"function","name":"supportedCollateral","inputs":[{"name":"","type":"address","internalType":"address"}],"outputs":[{"name":"","type":"bool","internalType":"bool"}],"stateMutability":"view"},{"type":"function","name":"supportedTokens","inputs":[{"name":"","type":"uint256","internalType":"uint256"}],"outputs":[{"name":"","type":"address","internalType":"address"}],"stateMutability":"view"},{"type":"function","name":"symbol","inputs":[],"outputs":[{"name":"","type":"string","internalType":"string"}],"stateMutability":"view"},{"type":"function","name":"totalSupply","inputs":[],"outputs":[{"name":"","type":"uint256","internalType":"uint256"}],"stateMutability":"view"},{"type":"function","name":"transfer","inputs":[{"name":"to","type":"address","internalType":"address"},{"name":"amount","type":"uint256","internalType":"uint256"}],"outputs":[{"name":"","type":"bool","internalType":"bool"}],"stateMutability":"nonpayable"},{"type":"function","name":"transferFrom","inputs":[{"name":"from","type":"address","internalType":"address"},{"name":"to","type":"address","internalType":"address"},{"name":"amount","type":"uint256","internalType":"uint256"}],"outputs":[{"name":"","type":"bool","internalType":"bool"}],"stateMutability":"nonpayable"},{"type":"function","name":"treasury","inputs":[],"outputs":[{"name":"","type":"address","internalType":"address"}],"stateMutability":"view"},{"type":"function","name":"unpause","inputs":[],"outputs":[],"stateMutability":"nonpayable"},{"type":"function","name":"withdrawCollateral","inputs":[{"name":"token","type":"address","internalType":"address"},{"name":"amount","type":"uint256","internalType":"uint256"}],"outputs":[],"stateMutability":"nonpayable"},{"type":"event","name":"Approval","inputs":[{"name":"owner","type":"address","indexed":true,"internalType":"address"},{"name":"spender","type":"address","indexed":true,"internalType":"address"},{"name":"value","type":"uint256","indexed":false,"internalType":"uint256"}],"anonymous":false},{"type":"event","name":"Burn","inputs":[{"name":"user","type":"address","indexed":true,"internalType":"address"},{"name":"amount","type":"uint256","indexed":false,"internalType":"uint256"}],"anonymous":false},{"type":"event","name":"CollateralRatioSet","inputs":[{"name":"user","type":"address","indexed":true,"internalType":"address"},{"name":"token","type":"address","indexed":true,"internalType":"address"},{"name":"ratio","type":"uint256","indexed":false,"internalType":"uint256"}],"anonymous":false},{"type":"event","name":"Deposit","inputs":[{"name":"user","type":"address","indexed":true,"internalType":"address"},{"name":"token","type":"address","indexed":true,"internalType":"address"},{"name":"amount","type":"uint256","indexed":false,"internalType":"uint256"}],"anonymous":false},{"type":"event","name":"Liquidated","inputs":[{"name":"user","type":"address","indexed":true,"internalType":"address"},{"name":"token","type":"address","indexed":true,"internalType":"address"},{"name":"repaid","type":"uint256","indexed":false,"internalType":"uint256"},{"name":"collateralTaken","type":"uint256","indexed":false,"internalType":"uint256"},{"name":"fee","type":"uint256","indexed":false,"internalType":"uint256"}],"anonymous":false},{"type":"event","name":"Mint","inputs":[{"name":"user","type":"address","indexed":true,"internalType":"address"},{"name":"amount","type":"uint256","indexed":false,"internalType":"uint256"}],"anonymous":false},{"type":"event","name":"Transfer","inputs":[{"name":"from","type":"address","indexed":true,"internalType":"address"},{"name":"to","type":"address","indexed":true,"internalType":"address"},{"name":"value","type":"uint256","indexed":false,"internalType":"uint256"}],"anonymous":false},{"type":"event","name":"Withdraw","inputs":[{"name":"user","type":"address","indexed":true,"internalType":"address"},{"name":"token","type":"address","indexed":true,"internalType":"address"},{"name":"amount","type":"uint256","indexed":false,"internalType":"uint256"}],"anonymous":false}],"bytecode":{"object":"0x6080604052600160065f6101000a81548160ff021916908360ff1602179055503480156200002b575f80fd5b5060405162005ce938038062005ce98339818101604052810190620000519190620005e5565b6040518060400160405280600a81526020017f43445020537461626c65000000000000000000000000000000000000000000008152506040518060400160405280600481526020017f63555344000000000000000000000000000000000000000000000000000000008152506012825f9081620000cf9190620008b3565b508160019081620000e19190620008b3565b508060025f6101000a81548160ff021916908360ff160217905550505050815183511462000146576040517f08c379a00000000000000000000000000000000000000000000000000000000081526004016200013d90620009f5565b60405180910390fd5b5f73ffffffffffffffffffffffffffffffffffffffff168173ffffffffffffffffffffffffffffffffffffffff1603620001b7576040517f08c379a0000000000000000000000000000000000000000000000000000000008152600401620001ae9062000a63565b60405180910390fd5b5f5b83518110156200037d57600160085f868481518110620001de57620001dd62000a83565b5b602002602001015173ffffffffffffffffffffffffffffffffffffffff1673ffffffffffffffffffffffffffffffffffffffff1681526020019081526020015f205f6101000a81548160ff0219169083151502179055508281815181106200024b576200024a62000a83565b5b602002602001015160075f8684815181106200026c576200026b62000a83565b5b602002602001015173ffffffffffffffffffffffffffffffffffffffff1673ffffffffffffffffffffffffffffffffffffffff1681526020019081526020015f205f6101000a81548173ffffffffffffffffffffffffffffffffffffffff021916908373ffffffffffffffffffffffffffffffffffffffff160217905550600984828151811062000302576200030162000a83565b5b6020026020010151908060018154018082558091505060019003905f5260205f20015f9091909190916101000a81548173ffffffffffffffffffffffffffffffffffffffff021916908373ffffffffffffffffffffffffffffffffffffffff1602179055508080620003749062000add565b915050620001b9565b5080600b5f6101000a81548173ffffffffffffffffffffffffffffffffffffffff021916908373ffffffffffffffffffffffffffffffffffffffff16021790555033600c5f6101000a81548173ffffffffffffffffffffffffffffffffffffffff021916908373ffffffffffffffffffffffffffffffffffffffff16021790555050505062000b29565b5f604051905090565b5f80fd5b5f80fd5b5f80fd5b5f601f19601f8301169050919050565b7f4e487b71000000000000000000000000000000000000000000000000000000005f52604160045260245ffd5b62000464826200041c565b810181811067ffffffffffffffff821117156200048657620004856200042c565b5b80604052505050565b5f6200049a62000407565b9050620004a8828262000459565b919050565b5f67ffffffffffffffff821115620004ca57620004c96200042c565b5b602082029050602081019050919050565b5f80fd5b5f73ffffffffffffffffffffffffffffffffffffffff82169050919050565b5f6200050a82620004df565b9050919050565b6200051c81620004fe565b811462000527575f80fd5b50565b5f815190506200053a8162000511565b92915050565b5f620005566200055084620004ad565b6200048f565b905080838252602082019050602084028301858111156200057c576200057b620004db565b5b835b81811015620005a957806200059488826200052a565b8452602084019350506020810190506200057e565b5050509392505050565b5f82601f830112620005ca57620005c962000418565b5b8151620005dc84826020860162000540565b91505092915050565b5f805f60608486031215620005ff57620005fe62000410565b5b5f84015167ffffffffffffffff8111156200061f576200061e62000414565b5b6200062d86828701620005b3565b935050602084015167ffffffffffffffff81111562000651576200065062000414565b5b6200065f86828701620005b3565b925050604062000672868287016200052a565b9150509250925092565b5f81519050919050565b7f4e487b71000000000000000000000000000000000000000000000000000000005f52602260045260245ffd5b5f6002820490506001821680620006cb57607f821691505b602082108103620006e157620006e062000686565b5b50919050565b5f819050815f5260205f209050919050565b5f6020601f8301049050919050565b5f82821b905092915050565b5f60088302620007457fffffffffffffffffffffffffffffffffffffffffffffffffffffffffffffffff8262000708565b62000751868362000708565b95508019841693508086168417925050509392505050565b5f819050919050565b5f819050919050565b5f6200079b620007956200078f8462000769565b62000772565b62000769565b9050919050565b5f819050919050565b620007b6836200077b565b620007ce620007c582620007a2565b84845462000714565b825550505050565b5f90565b620007e4620007d6565b620007f1818484620007ab565b505050565b5b8181101562000818576200080c5f82620007da565b600181019050620007f7565b5050565b601f82111562000867576200083181620006e7565b6200083c84620006f9565b810160208510156200084c578190505b620008646200085b85620006f9565b830182620007f6565b50505b505050565b5f82821c905092915050565b5f620008895f19846008026200086c565b1980831691505092915050565b5f620008a3838362000878565b9150826002028217905092915050565b620008be826200067c565b67ffffffffffffffff811115620008da57620008d96200042c565b5b620008e68254620006b3565b620008f38282856200081c565b5f60209050601f83116001811462000929575f841562000914578287015190505b62000920858262000896565b8655506200098f565b601f1984166200093986620006e7565b5f5b8281101562000962578489015182556001820191506020850194506020810190506200093b565b868310156200098257848901516200097e601f89168262000878565b8355505b6001600288020188555050505b505050505050565b5f82825260208201905092915050565b7f746f6b656e732f61676772656761746f7273206c656e677468000000000000005f82015250565b5f620009dd60198362000997565b9150620009ea82620009a7565b602082019050919050565b5f6020820190508181035f83015262000a0e81620009cf565b9050919050565b7f74726561737572792072657175697265640000000000000000000000000000005f82015250565b5f62000a4b60118362000997565b915062000a588262000a15565b602082019050919050565b5f6020820190508181035f83015262000a7c8162000a3d565b9050919050565b7f4e487b71000000000000000000000000000000000000000000000000000000005f52603260045260245ffd5b7f4e487b71000000000000000000000000000000000000000000000000000000005f52601160045260245ffd5b5f62000ae98262000769565b91507fffffffffffffffffffffffffffffffffffffffffffffffffffffffffffffffff820362000b1e5762000b1d62000ab0565b5b600182019050919050565b6151b28062000b375f395ff3fe608060405234801561000f575f80fd5b506004361061021a575f3560e01c806370a0823111610123578063b1827330116100ab578063d394dd9c1161007a578063d394dd9c14610618578063d825183d14610648578063dbac26e914610678578063dd62ed3e146106a8578063fa550eba146106d85761021a565b8063b18273301461057c578063b33dc1901461059a578063c2b7be16146105cc578063c6255626146105e85761021a565b80638da5cb5b116100f25780638da5cb5b146104d657806390a8ae9b146104f457806395d89b4114610512578063a5d5db0c14610530578063a9059cbb1461054c5761021a565b806370a082311461046257806376319190146104925780637a9fffb7146104ae5780638456cb59146104cc5761021a565b80633574d4c4116101a657806340c10f191161017557806340c10f19146103bc57806342966c68146103d85780634bd21445146103f45780635c975abb1461042657806361d027b3146104445761021a565b80633574d4c41461035c57806335deba681461037a578063371fd8e6146103965780633f4ba83a146103b25761021a565b80631fd48b9a116101ed5780631fd48b9a146102a657806323b872dd146102d657806326c0130314610306578063313ce56714610322578063350c35e9146103405761021a565b806306fdde031461021e578063095ea7b31461023c578063153b0d1e1461026c57806318160ddd14610288575b5f80fd5b610226610708565b6040516102339190613c4a565b60405180910390f35b61025660048036038101906102519190613cfb565b610793565b6040516102639190613d53565b60405180910390f35b61028660048036038101906102819190613d96565b610880565b005b610290610967565b60405161029d9190613de3565b60405180910390f35b6102c060048036038101906102bb9190613dfc565b61096d565b6040516102cd9190613e36565b60405180910390f35b6102f060048036038101906102eb9190613e4f565b61099d565b6040516102fd9190613d53565b60405180910390f35b610320600480360381019061031b9190613e4f565b610afc565b005b61032a61113a565b6040516103379190613eba565b60405180910390f35b61035a60048036038101906103559190613cfb565b61114c565b005b6103646115bc565b6040516103719190613de3565b60405180910390f35b610394600480360381019061038f9190613cfb565b6115c1565b005b6103b060048036038101906103ab9190613ed3565b61195e565b005b6103ba611e0b565b005b6103d660048036038101906103d19190613cfb565b611eb6565b005b6103f260048036038101906103ed9190613ed3565b612281565b005b61040e60048036038101906104099190613efe565b61228d565b60405161041d93929190613f3c565b60405180910390f35b61042e6122be565b60405161043b9190613d53565b60405180910390f35b61044c6122d1565b6040516104599190613e36565b60405180910390f35b61047c60048036038101906104779190613dfc565b6122f6565b6040516104899190613de3565b60405180910390f35b6104ac60048036038101906104a79190613dfc565b61230b565b005b6104b6612675565b6040516104c39190613de3565b60405180910390f35b6104d461267a565b005b6104de612726565b6040516104eb9190613e36565b60405180910390f35b6104fc61274b565b6040516105099190613de3565b60405180910390f35b61051a612750565b6040516105279190613c4a565b60405180910390f35b61054a60048036038101906105459190613cfb565b6127dc565b005b61056660048036038101906105619190613cfb565b612b84565b6040516105739190613d53565b60405180910390f35b610584612b9a565b6040516105919190613de3565b60405180910390f35b6105b460048036038101906105af9190613efe565b612b9f565b6040516105c393929190613f3c565b60405180910390f35b6105e660048036038101906105e19190613efe565b612c39565b005b61060260048036038101906105fd9190613ed3565b612e86565b60405161060f9190613e36565b60405180910390f35b610632600480360381019061062d9190613efe565b612ec1565b60405161063f9190613de3565b60405180910390f35b610662600480360381019061065d9190613efe565b612fa8565b60405161066f9190613de3565b60405180910390f35b610692600480360381019061068d9190613dfc565b613108565b60405161069f9190613d53565b60405180910390f35b6106c260048036038101906106bd9190613efe565b613125565b6040516106cf9190613de3565b60405180910390f35b6106f260048036038101906106ed9190613dfc565b613145565b6040516106ff9190613d53565b60405180910390f35b5f805461071490613f9e565b80601f016020809104026020016040519081016040528092919081815260200182805461074090613f9e565b801561078b5780601f106107625761010080835404028352916020019161078b565b820191905f5260205f20905b81548152906001019060200180831161076e57829003601f168201915b505050505081565b5f8160055f3373ffffffffffffffffffffffffffffffffffffffff1673ffffffffffffffffffffffffffffffffffffffff1681526020019081526020015f205f8573ffffffffffffffffffffffffffffffffffffffff1673ffffffffffffffffffffffffffffffffffffffff1681526020019081526020015f20819055508273ffffffffffffffffffffffffffffffffffffffff163373ffffffffffffffffffffffffffffffffffffffff167f8c5be1e5ebec7d5bd14f71427d1e84f3dd0314c0f7b2291e5b200ac8c7c3b9258460405161086e9190613de3565b60405180910390a36001905092915050565b600c5f9054906101000a900473ffffffffffffffffffffffffffffffffffffffff1673ffffffffffffffffffffffffffffffffffffffff163373ffffffffffffffffffffffffffffffffffffffff161461090f576040517f08c379a000000000000000000000000000000000000000000000000000000000815260040161090690614018565b60405180910390fd5b80600d5f8473ffffffffffffffffffffffffffffffffffffffff1673ffffffffffffffffffffffffffffffffffffffff1681526020019081526020015f205f6101000a81548160ff0219169083151502179055505050565b60035481565b6007602052805f5260405f205f915054906101000a900473ffffffffffffffffffffffffffffffffffffffff1681565b5f8060055f8673ffffffffffffffffffffffffffffffffffffffff1673ffffffffffffffffffffffffffffffffffffffff1681526020019081526020015f205f3373ffffffffffffffffffffffffffffffffffffffff1673ffffffffffffffffffffffffffffffffffffffff1681526020019081526020015f2054905082811015610a5d576040517f08c379a0000000000000000000000000000000000000000000000000000000008152600401610a5490614080565b60405180910390fd5b8281610a6991906140cb565b60055f8773ffffffffffffffffffffffffffffffffffffffff1673ffffffffffffffffffffffffffffffffffffffff1681526020019081526020015f205f3373ffffffffffffffffffffffffffffffffffffffff1673ffffffffffffffffffffffffffffffffffffffff1681526020019081526020015f2081905550610af0858585613162565b60019150509392505050565b600160065f9054906101000a900460ff1660ff1614610b50576040517f08c379a0000000000000000000000000000000000000000000000000000000008152600401610b4790614148565b60405180910390fd5b600260065f6101000a81548160ff021916908360ff1602179055508160085f8273ffffffffffffffffffffffffffffffffffffffff1673ffffffffffffffffffffffffffffffffffffffff1681526020019081526020015f205f9054906101000a900460ff16610bf5576040517f08c379a0000000000000000000000000000000000000000000000000000000008152600401610bec906141b0565b60405180910390fd5b5f8211610c37576040517f08c379a0000000000000000000000000000000000000000000000000000000008152600401610c2e90614218565b60405180910390fd5b5f600a5f8673ffffffffffffffffffffffffffffffffffffffff1673ffffffffffffffffffffffffffffffffffffffff1681526020019081526020015f205f8573ffffffffffffffffffffffffffffffffffffffff1673ffffffffffffffffffffffffffffffffffffffff1681526020019081526020015f2090505f816001015411610cf8576040517f08c379a0000000000000000000000000000000000000000000000000000000008152600401610cef90614280565b60405180910390fd5b8060010154831115610d3f576040517f08c379a0000000000000000000000000000000000000000000000000000000008152600401610d36906142e8565b60405180910390fd5b5f610d4d85835f01546132f2565b90505f8260010154606483610d629190614306565b610d6c9190614374565b905060648110610db1576040517f08c379a0000000000000000000000000000000000000000000000000000000008152600401610da8906143ee565b60405180910390fd5b5f805f610dc28989885f01546135b1565b9250925092508260055f3373ffffffffffffffffffffffffffffffffffffffff1673ffffffffffffffffffffffffffffffffffffffff1681526020019081526020015f205f3073ffffffffffffffffffffffffffffffffffffffff1673ffffffffffffffffffffffffffffffffffffffff1681526020019081526020015f20541015610e83576040517f08c379a0000000000000000000000000000000000000000000000000000000008152600401610e7a9061447c565b60405180910390fd5b3073ffffffffffffffffffffffffffffffffffffffff166323b872dd3330866040518463ffffffff1660e01b8152600401610ec09392919061449a565b6020604051808303815f875af1158015610edc573d5f803e3d5ffd5b505050506040513d601f19601f82011682018060405250810190610f0091906144e3565b50610f0b3084613843565b5f818311610f19575f610f26565b8183610f2591906140cb565b5b9050865f0154831115610f3a57865f015492505b82875f015f828254610f4c91906140cb565b925050819055508660010154841015610f7457838760010154610f6f91906140cb565b610f76565b5f5b87600101819055505f811115611003578973ffffffffffffffffffffffffffffffffffffffff1663a9059cbb33836040518363ffffffff1660e01b8152600401610fc192919061450e565b6020604051808303815f875af1158015610fdd573d5f803e3d5ffd5b505050506040513d601f19601f8201168201806040525081019061100191906144e3565b505b5f8211156110a9578973ffffffffffffffffffffffffffffffffffffffff1663a9059cbb600b5f9054906101000a900473ffffffffffffffffffffffffffffffffffffffff16846040518363ffffffff1660e01b815260040161106792919061450e565b6020604051808303815f875af1158015611083573d5f803e3d5ffd5b505050506040513d601f19601f820116820180604052508101906110a791906144e3565b505b8973ffffffffffffffffffffffffffffffffffffffff168b73ffffffffffffffffffffffffffffffffffffffff167ffcbc974bf3a532baf2bb229db3c37fd58299b62d2d1db6a855dac5b693bb6ff386868660405161110a93929190613f3c565b60405180910390a35050505050505050600160065f6101000a81548160ff021916908360ff160217905550505050565b60025f9054906101000a900460ff1681565b600160065f9054906101000a900460ff1660ff16146111a0576040517f08c379a000000000000000000000000000000000000000000000000000000000815260040161119790614148565b60405180910390fd5b600260065f6101000a81548160ff021916908360ff1602179055508160085f8273ffffffffffffffffffffffffffffffffffffffff1673ffffffffffffffffffffffffffffffffffffffff1681526020019081526020015f205f9054906101000a900460ff16611245576040517f08c379a000000000000000000000000000000000000000000000000000000000815260040161123c906141b0565b60405180910390fd5b600c60149054906101000a900460ff1615611295576040517f08c379a000000000000000000000000000000000000000000000000000000000815260040161128c9061457f565b60405180910390fd5b600d5f3373ffffffffffffffffffffffffffffffffffffffff1673ffffffffffffffffffffffffffffffffffffffff1681526020019081526020015f205f9054906101000a900460ff161561131f576040517f08c379a0000000000000000000000000000000000000000000000000000000008152600401611316906145e7565b60405180910390fd5b5f600a5f3373ffffffffffffffffffffffffffffffffffffffff1673ffffffffffffffffffffffffffffffffffffffff1681526020019081526020015f205f8573ffffffffffffffffffffffffffffffffffffffff1673ffffffffffffffffffffffffffffffffffffffff1681526020019081526020015f2090505f83116113dc576040517f08c379a00000000000000000000000000000000000000000000000000000000081526004016113d39061464f565b60405180910390fd5b82815f01541015611422576040517f08c379a0000000000000000000000000000000000000000000000000000000008152600401611419906146dd565b60405180910390fd5b5f83825f015461143291906140cb565b90505f826001015411156114b1575f61144b86836132f2565b9050826002015483600101546114619190614306565b60648261146e9190614306565b10156114af576040517f08c379a00000000000000000000000000000000000000000000000000000000081526004016114a690614745565b60405180910390fd5b505b80825f01819055508473ffffffffffffffffffffffffffffffffffffffff1663a9059cbb33866040518363ffffffff1660e01b81526004016114f492919061450e565b6020604051808303815f875af1158015611510573d5f803e3d5ffd5b505050506040513d601f19601f8201168201806040525081019061153491906144e3565b508473ffffffffffffffffffffffffffffffffffffffff163373ffffffffffffffffffffffffffffffffffffffff167f9b1bfa7fa9ee420a16e124f794c35ac9f90472acc99140eb2f6447c714cad8eb866040516115929190613de3565b60405180910390a3505050600160065f6101000a81548160ff021916908360ff1602179055505050565b600581565b600160065f9054906101000a900460ff1660ff1614611615576040517f08c379a000000000000000000000000000000000000000000000000000000000815260040161160c90614148565b60405180910390fd5b600260065f6101000a81548160ff021916908360ff1602179055508160085f8273ffffffffffffffffffffffffffffffffffffffff1673ffffffffffffffffffffffffffffffffffffffff1681526020019081526020015f205f9054906101000a900460ff166116ba576040517f08c379a00000000000000000000000000000000000000000000000000000000081526004016116b1906141b0565b60405180910390fd5b600c60149054906101000a900460ff161561170a576040517f08c379a00000000000000000000000000000000000000000000000000000000081526004016117019061457f565b60405180910390fd5b600d5f3373ffffffffffffffffffffffffffffffffffffffff1673ffffffffffffffffffffffffffffffffffffffff1681526020019081526020015f205f9054906101000a900460ff1615611794576040517f08c379a000000000000000000000000000000000000000000000000000000000815260040161178b906145e7565b60405180910390fd5b606e8210156117d8576040517f08c379a00000000000000000000000000000000000000000000000000000000081526004016117cf906147ad565b60405180910390fd5b5f600a5f3373ffffffffffffffffffffffffffffffffffffffff1673ffffffffffffffffffffffffffffffffffffffff1681526020019081526020015f205f8573ffffffffffffffffffffffffffffffffffffffff1673ffffffffffffffffffffffffffffffffffffffff1681526020019081526020015f2090505f816001015411156118cf575f61186d85835f01546132f2565b905083826001015461187f9190614306565b60648261188c9190614306565b10156118cd576040517f08c379a00000000000000000000000000000000000000000000000000000000081526004016118c49061483b565b60405180910390fd5b505b8281600201819055508373ffffffffffffffffffffffffffffffffffffffff163373ffffffffffffffffffffffffffffffffffffffff167fbb954fdfea07d1739aed4eac919b151903b481aeacf9d99e3ce768ca82a2a0a9856040516119359190613de3565b60405180910390a35050600160065f6101000a81548160ff021916908360ff1602179055505050565b600160065f9054906101000a900460ff1660ff16146119b2576040517f08c379a00000000000000000000000000000000000000000000000000000000081526004016119a990614148565b60405180910390fd5b600260065f6101000a81548160ff021916908360ff160217905550600c60149054906101000a900460ff1615611a1d576040517f08c379a0000000000000000000000000000000000000000000000000000000008152600401611a149061457f565b60405180910390fd5b600d5f3373ffffffffffffffffffffffffffffffffffffffff1673ffffffffffffffffffffffffffffffffffffffff1681526020019081526020015f205f9054906101000a900460ff1615611aa7576040517f08c379a0000000000000000000000000000000000000000000000000000000008152600401611a9e906145e7565b60405180910390fd5b5f8111611ae9576040517f08c379a0000000000000000000000000000000000000000000000000000000008152600401611ae0906148a3565b60405180910390fd5b5f611af333613997565b905081811015611b38576040517f08c379a0000000000000000000000000000000000000000000000000000000008152600401611b2f9061490b565b60405180910390fd5b3073ffffffffffffffffffffffffffffffffffffffff166323b872dd3330856040518463ffffffff1660e01b8152600401611b759392919061449a565b6020604051808303815f875af1158015611b91573d5f803e3d5ffd5b505050506040513d601f19601f82011682018060405250810190611bb591906144e3565b50611bc03083613843565b5f6009805480602002602001604051908101604052809291908181526020018280548015611c4057602002820191905f5260205f20905b815f9054906101000a900473ffffffffffffffffffffffffffffffffffffffff1673ffffffffffffffffffffffffffffffffffffffff1681526020019060010190808311611bf7575b505050505090505f8390505f5b825181108015611c5c57505f82115b15611d9b575f600a5f3373ffffffffffffffffffffffffffffffffffffffff1673ffffffffffffffffffffffffffffffffffffffff1681526020019081526020015f205f858481518110611cb357611cb2614929565b5b602002602001015173ffffffffffffffffffffffffffffffffffffffff1673ffffffffffffffffffffffffffffffffffffffff1681526020019081526020015f2090505f816001015403611d075750611d88565b5f85826001015488611d199190614306565b611d239190614374565b90508160010154811115611d3957816001015490505b60018551611d4791906140cb565b83148015611d5457508084115b15611d5d578390505b80826001015f828254611d7091906140cb565b925050819055508084611d8391906140cb565b935050505b8080611d9390614956565b915050611c4d565b503373ffffffffffffffffffffffffffffffffffffffff167fcc16f5dbb4873280815c1ee09dbd06736cffcc184412cf7a71a0fdb75d397ca585604051611de29190613de3565b60405180910390a2505050600160065f6101000a81548160ff021916908360ff16021790555050565b600c5f9054906101000a900473ffffffffffffffffffffffffffffffffffffffff1673ffffffffffffffffffffffffffffffffffffffff163373ffffffffffffffffffffffffffffffffffffffff1614611e9a576040517f08c379a0000000000000000000000000000000000000000000000000000000008152600401611e9190614018565b60405180910390fd5b5f600c60146101000a81548160ff021916908315150217905550565b600160065f9054906101000a900460ff1660ff1614611f0a576040517f08c379a0000000000000000000000000000000000000000000000000000000008152600401611f0190614148565b60405180910390fd5b600260065f6101000a81548160ff021916908360ff1602179055508160085f8273ffffffffffffffffffffffffffffffffffffffff1673ffffffffffffffffffffffffffffffffffffffff1681526020019081526020015f205f9054906101000a900460ff16611faf576040517f08c379a0000000000000000000000000000000000000000000000000000000008152600401611fa6906141b0565b60405180910390fd5b600c60149054906101000a900460ff1615611fff576040517f08c379a0000000000000000000000000000000000000000000000000000000008152600401611ff69061457f565b60405180910390fd5b600d5f3373ffffffffffffffffffffffffffffffffffffffff1673ffffffffffffffffffffffffffffffffffffffff1681526020019081526020015f205f9054906101000a900460ff1615612089576040517f08c379a0000000000000000000000000000000000000000000000000000000008152600401612080906145e7565b60405180910390fd5b5f82116120cb576040517f08c379a00000000000000000000000000000000000000000000000000000000081526004016120c2906149e7565b60405180910390fd5b5f600a5f3373ffffffffffffffffffffffffffffffffffffffff1673ffffffffffffffffffffffffffffffffffffffff1681526020019081526020015f205f8573ffffffffffffffffffffffffffffffffffffffff1673ffffffffffffffffffffffffffffffffffffffff1681526020019081526020015f209050606e8160020154101561218e576040517f08c379a000000000000000000000000000000000000000000000000000000000815260040161218590614a4f565b60405180910390fd5b5f6121993386612fa8565b9050808483600101546121ac9190614a6d565b11156121ed576040517f08c379a00000000000000000000000000000000000000000000000000000000081526004016121e490614aea565b60405180910390fd5b83826001015f8282546122009190614a6d565b925050819055506122113385613aec565b3373ffffffffffffffffffffffffffffffffffffffff167f0f6798a560793a54c3bcfe86a93cde1e73087d944c0ea20544137d4121396885856040516122579190613de3565b60405180910390a2505050600160065f6101000a81548160ff021916908360ff1602179055505050565b61228a8161195e565b50565b600a602052815f5260405f20602052805f5260405f205f9150915050805f0154908060010154908060020154905083565b600c60149054906101000a900460ff1681565b600b5f9054906101000a900473ffffffffffffffffffffffffffffffffffffffff1681565b6004602052805f5260405f205f915090505481565b600c5f9054906101000a900473ffffffffffffffffffffffffffffffffffffffff1673ffffffffffffffffffffffffffffffffffffffff163373ffffffffffffffffffffffffffffffffffffffff161461239a576040517f08c379a000000000000000000000000000000000000000000000000000000000815260040161239190614018565b60405180910390fd5b60085f8273ffffffffffffffffffffffffffffffffffffffff1673ffffffffffffffffffffffffffffffffffffffff1681526020019081526020015f205f9054906101000a900460ff16612423576040517f08c379a000000000000000000000000000000000000000000000000000000000815260040161241a90614b52565b60405180910390fd5b5f60085f8373ffffffffffffffffffffffffffffffffffffffff1673ffffffffffffffffffffffffffffffffffffffff1681526020019081526020015f205f6101000a81548160ff0219169083151502179055505f60075f8373ffffffffffffffffffffffffffffffffffffffff1673ffffffffffffffffffffffffffffffffffffffff1681526020019081526020015f205f6101000a81548173ffffffffffffffffffffffffffffffffffffffff021916908373ffffffffffffffffffffffffffffffffffffffff1602179055505f5b600980549050811015612671578173ffffffffffffffffffffffffffffffffffffffff166009828154811061252c5761252b614929565b5b905f5260205f20015f9054906101000a900473ffffffffffffffffffffffffffffffffffffffff1673ffffffffffffffffffffffffffffffffffffffff160361265e576009600160098054905061258391906140cb565b8154811061259457612593614929565b5b905f5260205f20015f9054906101000a900473ffffffffffffffffffffffffffffffffffffffff16600982815481106125d0576125cf614929565b5b905f5260205f20015f6101000a81548173ffffffffffffffffffffffffffffffffffffffff021916908373ffffffffffffffffffffffffffffffffffffffff160217905550600980548061262757612626614b70565b5b600190038181905f5260205f20015f6101000a81549073ffffffffffffffffffffffffffffffffffffffff02191690559055612671565b808061266990614956565b9150506124f4565b5050565b606e81565b600c5f9054906101000a900473ffffffffffffffffffffffffffffffffffffffff1673ffffffffffffffffffffffffffffffffffffffff163373ffffffffffffffffffffffffffffffffffffffff1614612709576040517f08c379a000000000000000000000000000000000000000000000000000000000815260040161270090614018565b60405180910390fd5b6001600c60146101000a81548160ff021916908315150217905550565b600c5f9054906101000a900473ffffffffffffffffffffffffffffffffffffffff1681565b606481565b6001805461275d90613f9e565b80601f016020809104026020016040519081016040528092919081815260200182805461278990613f9e565b80156127d45780601f106127ab576101008083540402835291602001916127d4565b820191905f5260205f20905b8154815290600101906020018083116127b757829003601f168201915b505050505081565b600160065f9054906101000a900460ff1660ff1614612830576040517f08c379a000000000000000000000000000000000000000000000000000000000815260040161282790614148565b60405180910390fd5b600260065f6101000a81548160ff021916908360ff1602179055508160085f8273ffffffffffffffffffffffffffffffffffffffff1673ffffffffffffffffffffffffffffffffffffffff1681526020019081526020015f205f9054906101000a900460ff166128d5576040517f08c379a00000000000000000000000000000000000000000000000000000000081526004016128cc906141b0565b60405180910390fd5b600c60149054906101000a900460ff1615612925576040517f08c379a000000000000000000000000000000000000000000000000000000000815260040161291c9061457f565b60405180910390fd5b600d5f3373ffffffffffffffffffffffffffffffffffffffff1673ffffffffffffffffffffffffffffffffffffffff1681526020019081526020015f205f9054906101000a900460ff16156129af576040517f08c379a00000000000000000000000000000000000000000000000000000000081526004016129a6906145e7565b60405180910390fd5b5f82116129f1576040517f08c379a00000000000000000000000000000000000000000000000000000000081526004016129e890614be7565b60405180910390fd5b8273ffffffffffffffffffffffffffffffffffffffff166323b872dd3330856040518463ffffffff1660e01b8152600401612a2e9392919061449a565b6020604051808303815f875af1158015612a4a573d5f803e3d5ffd5b505050506040513d601f19601f82011682018060405250810190612a6e91906144e3565b5081600a5f3373ffffffffffffffffffffffffffffffffffffffff1673ffffffffffffffffffffffffffffffffffffffff1681526020019081526020015f205f8573ffffffffffffffffffffffffffffffffffffffff1673ffffffffffffffffffffffffffffffffffffffff1681526020019081526020015f205f015f828254612af89190614a6d565b925050819055508273ffffffffffffffffffffffffffffffffffffffff163373ffffffffffffffffffffffffffffffffffffffff167f5548c837ab068cf56a2c2479df0882a4922fd203edb7517321831d95078c5f6284604051612b5c9190613de3565b60405180910390a350600160065f6101000a81548160ff021916908360ff1602179055505050565b5f612b90338484613162565b6001905092915050565b600181565b5f805f80600a5f8773ffffffffffffffffffffffffffffffffffffffff1673ffffffffffffffffffffffffffffffffffffffff1681526020019081526020015f205f8673ffffffffffffffffffffffffffffffffffffffff1673ffffffffffffffffffffffffffffffffffffffff1681526020019081526020015f209050805f015481600101548260020154935093509350509250925092565b600c5f9054906101000a900473ffffffffffffffffffffffffffffffffffffffff1673ffffffffffffffffffffffffffffffffffffffff163373ffffffffffffffffffffffffffffffffffffffff1614612cc8576040517f08c379a0000000000000000000000000000000000000000000000000000000008152600401612cbf90614018565b60405180910390fd5b60085f8373ffffffffffffffffffffffffffffffffffffffff1673ffffffffffffffffffffffffffffffffffffffff1681526020019081526020015f205f9054906101000a900460ff1615612d52576040517f08c379a0000000000000000000000000000000000000000000000000000000008152600401612d4990614c4f565b60405180910390fd5b600160085f8473ffffffffffffffffffffffffffffffffffffffff1673ffffffffffffffffffffffffffffffffffffffff1681526020019081526020015f205f6101000a81548160ff0219169083151502179055508060075f8473ffffffffffffffffffffffffffffffffffffffff1673ffffffffffffffffffffffffffffffffffffffff1681526020019081526020015f205f6101000a81548173ffffffffffffffffffffffffffffffffffffffff021916908373ffffffffffffffffffffffffffffffffffffffff160217905550600982908060018154018082558091505060019003905f5260205f20015f9091909190916101000a81548173ffffffffffffffffffffffffffffffffffffffff021916908373ffffffffffffffffffffffffffffffffffffffff1602179055505050565b60098181548110612e95575f80fd5b905f5260205f20015f915054906101000a900473ffffffffffffffffffffffffffffffffffffffff1681565b5f80600a5f8573ffffffffffffffffffffffffffffffffffffffff1673ffffffffffffffffffffffffffffffffffffffff1681526020019081526020015f205f8473ffffffffffffffffffffffffffffffffffffffff1673ffffffffffffffffffffffffffffffffffffffff1681526020019081526020015f2090505f816001015403612f71577fffffffffffffffffffffffffffffffffffffffffffffffffffffffffffffffff915050612fa2565b5f612f7f84835f01546132f2565b90508160010154606482612f939190614306565b612f9d9190614374565b925050505b92915050565b5f8160085f8273ffffffffffffffffffffffffffffffffffffffff1673ffffffffffffffffffffffffffffffffffffffff1681526020019081526020015f205f9054906101000a900460ff16613033576040517f08c379a000000000000000000000000000000000000000000000000000000000815260040161302a906141b0565b60405180910390fd5b5f600a5f8673ffffffffffffffffffffffffffffffffffffffff1673ffffffffffffffffffffffffffffffffffffffff1681526020019081526020015f205f8573ffffffffffffffffffffffffffffffffffffffff1673ffffffffffffffffffffffffffffffffffffffff1681526020019081526020015f2090505f815f015414806130c257505f8160020154145b156130d0575f925050613101565b5f6130de85835f01546132f2565b905081600201546064826130f29190614306565b6130fc9190614374565b935050505b5092915050565b600d602052805f5260405f205f915054906101000a900460ff1681565b6005602052815f5260405f20602052805f5260405f205f91509150505481565b6008602052805f5260405f205f915054906101000a900460ff1681565b8060045f8573ffffffffffffffffffffffffffffffffffffffff1673ffffffffffffffffffffffffffffffffffffffff1681526020019081526020015f205410156131e2576040517f08c379a00000000000000000000000000000000000000000000000000000000081526004016131d990614cb7565b60405180910390fd5b8060045f8573ffffffffffffffffffffffffffffffffffffffff1673ffffffffffffffffffffffffffffffffffffffff1681526020019081526020015f205f82825461322e91906140cb565b925050819055508060045f8473ffffffffffffffffffffffffffffffffffffffff1673ffffffffffffffffffffffffffffffffffffffff1681526020019081526020015f205f8282546132819190614a6d565b925050819055508173ffffffffffffffffffffffffffffffffffffffff168373ffffffffffffffffffffffffffffffffffffffff167fddf252ad1be2c89b69c2b068fc378daa952ba7f163c4a11628f55a4df523b3ef836040516132e59190613de3565b60405180910390a3505050565b5f8060075f8573ffffffffffffffffffffffffffffffffffffffff1673ffffffffffffffffffffffffffffffffffffffff1681526020019081526020015f205f9054906101000a900473ffffffffffffffffffffffffffffffffffffffff1690505f73ffffffffffffffffffffffffffffffffffffffff168173ffffffffffffffffffffffffffffffffffffffff16036133c1576040517f08c379a00000000000000000000000000000000000000000000000000000000081526004016133b890614d1f565b60405180910390fd5b5f808273ffffffffffffffffffffffffffffffffffffffff1663feaf968c6040518163ffffffff1660e01b815260040160a060405180830381865afa15801561340c573d5f803e3d5ffd5b505050506040513d601f19601f820116820180604052508101906134309190614dc3565b509350509250505f8213613479576040517f08c379a000000000000000000000000000000000000000000000000000000000815260040161347090614e84565b60405180910390fd5b5f8373ffffffffffffffffffffffffffffffffffffffff1663313ce5676040518163ffffffff1660e01b8152600401602060405180830381865afa1580156134c3573d5f803e3d5ffd5b505050506040513d601f19601f820116820180604052508101906134e79190614ecc565b90505f8160126134f79190614ef7565b600a613503919061505a565b8461350e9190614306565b90505f8873ffffffffffffffffffffffffffffffffffffffff1663313ce5676040518163ffffffff1660e01b8152600401602060405180830381865afa15801561355a573d5f803e3d5ffd5b505050506040513d601f19601f8201168201806040525081019061357e9190614ecc565b905080600a61358d919061505a565b82896135999190614306565b6135a39190614374565b965050505050505092915050565b5f805f8060075f8873ffffffffffffffffffffffffffffffffffffffff1673ffffffffffffffffffffffffffffffffffffffff1681526020019081526020015f205f9054906101000a900473ffffffffffffffffffffffffffffffffffffffff1690505f8173ffffffffffffffffffffffffffffffffffffffff1663feaf968c6040518163ffffffff1660e01b815260040160a060405180830381865afa15801561365e573d5f803e3d5ffd5b505050506040513d601f19601f820116820180604052508101906136829190614dc3565b5050509150505f8273ffffffffffffffffffffffffffffffffffffffff1663313ce5676040518163ffffffff1660e01b8152600401602060405180830381865afa1580156136d2573d5f803e3d5ffd5b505050506040513d601f19601f820116820180604052508101906136f69190614ecc565b60126137029190614ef7565b600a61370e919061505a565b826137199190614306565b90505f8973ffffffffffffffffffffffffffffffffffffffff1663313ce5676040518163ffffffff1660e01b8152600401602060405180830381865afa158015613765573d5f803e3d5ffd5b505050506040513d601f19601f820116820180604052508101906137899190614ecc565b60ff16600a61379891906150a4565b90505f82828b6137a89190614306565b6137b29190614374565b90505f60646005836137c49190614306565b6137ce9190614374565b826137d99190614a6d565b90508981111561380e578990505f83858c6137f49190614306565b6137fe9190614374565b90508b81101561380c57809b505b505b5f606460018361381e9190614306565b6138289190614374565b90508b82829950995099505050505050505093509350939050565b8060045f8473ffffffffffffffffffffffffffffffffffffffff1673ffffffffffffffffffffffffffffffffffffffff1681526020019081526020015f205410156138c3576040517f08c379a00000000000000000000000000000000000000000000000000000000081526004016138ba9061515e565b60405180910390fd5b8060045f8473ffffffffffffffffffffffffffffffffffffffff1673ffffffffffffffffffffffffffffffffffffffff1681526020019081526020015f205f82825461390f91906140cb565b925050819055508060035f82825461392791906140cb565b925050819055505f73ffffffffffffffffffffffffffffffffffffffff168273ffffffffffffffffffffffffffffffffffffffff167fddf252ad1be2c89b69c2b068fc378daa952ba7f163c4a11628f55a4df523b3ef8360405161398b9190613de3565b60405180910390a35050565b5f806009805480602002602001604051908101604052809291908181526020018280548015613a1857602002820191905f5260205f20905b815f9054906101000a900473ffffffffffffffffffffffffffffffffffffffff1673ffffffffffffffffffffffffffffffffffffffff16815260200190600101908083116139cf575b505050505090505f805b8251811015613ae157600a5f8673ffffffffffffffffffffffffffffffffffffffff1673ffffffffffffffffffffffffffffffffffffffff1681526020019081526020015f205f848381518110613a7c57613a7b614929565b5b602002602001015173ffffffffffffffffffffffffffffffffffffffff1673ffffffffffffffffffffffffffffffffffffffff1681526020019081526020015f206001015482613acc9190614a6d565b91508080613ad990614956565b915050613a22565b508092505050919050565b8060035f828254613afd9190614a6d565b925050819055508060045f8473ffffffffffffffffffffffffffffffffffffffff1673ffffffffffffffffffffffffffffffffffffffff1681526020019081526020015f205f828254613b509190614a6d565b925050819055508173ffffffffffffffffffffffffffffffffffffffff165f73ffffffffffffffffffffffffffffffffffffffff167fddf252ad1be2c89b69c2b068fc378daa952ba7f163c4a11628f55a4df523b3ef83604051613bb49190613de3565b60405180910390a35050565b5f81519050919050565b5f82825260208201905092915050565b5f5b83811015613bf7578082015181840152602081019050613bdc565b5f8484015250505050565b5f601f19601f8301169050919050565b5f613c1c82613bc0565b613c268185613bca565b9350613c36818560208601613bda565b613c3f81613c02565b840191505092915050565b5f6020820190508181035f830152613c628184613c12565b905092915050565b5f80fd5b5f73ffffffffffffffffffffffffffffffffffffffff82169050919050565b5f613c9782613c6e565b9050919050565b613ca781613c8d565b8114613cb1575f80fd5b50565b5f81359050613cc281613c9e565b92915050565b5f819050919050565b613cda81613cc8565b8114613ce4575f80fd5b50565b5f81359050613cf581613cd1565b92915050565b5f8060408385031215613d1157613d10613c6a565b5b5f613d1e85828601613cb4565b9250506020613d2f85828601613ce7565b9150509250929050565b5f8115159050919050565b613d4d81613d39565b82525050565b5f602082019050613d665f830184613d44565b92915050565b613d7581613d39565b8114613d7f575f80fd5b50565b5f81359050613d9081613d6c565b92915050565b5f8060408385031215613dac57613dab613c6a565b5b5f613db985828601613cb4565b9250506020613dca85828601613d82565b9150509250929050565b613ddd81613cc8565b82525050565b5f602082019050613df65f830184613dd4565b92915050565b5f60208284031215613e1157613e10613c6a565b5b5f613e1e84828501613cb4565b91505092915050565b613e3081613c8d565b82525050565b5f602082019050613e495f830184613e27565b92915050565b5f805f60608486031215613e6657613e65613c6a565b5b5f613e7386828701613cb4565b9350506020613e8486828701613cb4565b9250506040613e9586828701613ce7565b9150509250925092565b5f60ff82169050919050565b613eb481613e9f565b82525050565b5f602082019050613ecd5f830184613eab565b92915050565b5f60208284031215613ee857613ee7613c6a565b5b5f613ef584828501613ce7565b91505092915050565b5f8060408385031215613f1457613f13613c6a565b5b5f613f2185828601613cb4565b9250506020613f3285828601613cb4565b9150509250929050565b5f606082019050613f4f5f830186613dd4565b613f5c6020830185613dd4565b613f696040830184613dd4565b949350505050565b7f4e487b71000000000000000000000000000000000000000000000000000000005f52602260045260245ffd5b5f6002820490506001821680613fb557607f821691505b602082108103613fc857613fc7613f71565b5b50919050565b7f6f776e6572206f6e6c79000000000000000000000000000000000000000000005f82015250565b5f614002600a83613bca565b915061400d82613fce565b602082019050919050565b5f6020820190508181035f83015261402f81613ff6565b9050919050565b7f45524332303a20616c6c6f77616e6365000000000000000000000000000000005f82015250565b5f61406a601083613bca565b915061407582614036565b602082019050919050565b5f6020820190508181035f8301526140978161405e565b9050919050565b7f4e487b71000000000000000000000000000000000000000000000000000000005f52601160045260245ffd5b5f6140d582613cc8565b91506140e083613cc8565b92508282039050818111156140f8576140f761409e565b5b92915050565b7f7265656e7472616e7400000000000000000000000000000000000000000000005f82015250565b5f614132600983613bca565b915061413d826140fe565b602082019050919050565b5f6020820190508181035f83015261415f81614126565b9050919050565b7f756e737570706f7274656420636f6c6c61746572616c000000000000000000005f82015250565b5f61419a601683613bca565b91506141a582614166565b602082019050919050565b5f6020820190508181035f8301526141c78161418e565b9050919050565b7f6c69717569646174653a2072657061793e3000000000000000000000000000005f82015250565b5f614202601283613bca565b915061420d826141ce565b602082019050919050565b5f6020820190508181035f83015261422f816141f6565b9050919050565b7f6c69717569646174653a206e6f206465627400000000000000000000000000005f82015250565b5f61426a601283613bca565b915061427582614236565b602082019050919050565b5f6020820190508181035f8301526142978161425e565b9050919050565b7f6c69717569646174653a2072657061793e6465627400000000000000000000005f82015250565b5f6142d2601583613bca565b91506142dd8261429e565b602082019050919050565b5f6020820190508181035f8301526142ff816142c6565b9050919050565b5f61431082613cc8565b915061431b83613cc8565b925082820261432981613cc8565b915082820484148315176143405761433f61409e565b5b5092915050565b7f4e487b71000000000000000000000000000000000000000000000000000000005f52601260045260245ffd5b5f61437e82613cc8565b915061438983613cc8565b92508261439957614398614347565b5b828204905092915050565b7f6c69717569646174653a206e6f7420656c696769626c650000000000000000005f82015250565b5f6143d8601783613bca565b91506143e3826143a4565b602082019050919050565b5f6020820190508181035f830152614405816143cc565b9050919050565b7f6c69717569646174653a20616c6c6f77616e636520696e73756666696369656e5f8201527f7400000000000000000000000000000000000000000000000000000000000000602082015250565b5f614466602183613bca565b91506144718261440c565b604082019050919050565b5f6020820190508181035f8301526144938161445a565b9050919050565b5f6060820190506144ad5f830186613e27565b6144ba6020830185613e27565b6144c76040830184613dd4565b949350505050565b5f815190506144dd81613d6c565b92915050565b5f602082840312156144f8576144f7613c6a565b5b5f614505848285016144cf565b91505092915050565b5f6040820190506145215f830185613e27565b61452e6020830184613dd4565b9392505050565b7f70617573656400000000000000000000000000000000000000000000000000005f82015250565b5f614569600683613bca565b915061457482614535565b602082019050919050565b5f6020820190508181035f8301526145968161455d565b9050919050565b7f626c61636b6c69737465640000000000000000000000000000000000000000005f82015250565b5f6145d1600b83613bca565b91506145dc8261459d565b602082019050919050565b5f6020820190508181035f8301526145fe816145c5565b9050919050565b7f77697468647261773a20616d6f756e743e3000000000000000000000000000005f82015250565b5f614639601283613bca565b915061464482614605565b602082019050919050565b5f6020820190508181035f8301526146668161462d565b9050919050565b7f77697468647261773a20696e73756666696369656e7420636f6c6c61746572615f8201527f6c00000000000000000000000000000000000000000000000000000000000000602082015250565b5f6146c7602183613bca565b91506146d28261466d565b604082019050919050565b5f6020820190508181035f8301526146f4816146bb565b9050919050565b7f77697468647261773a20756e6465722d636f6c6c61746572616c697a656400005f82015250565b5f61472f601e83613bca565b915061473a826146fb565b602082019050919050565b5f6020820190508181035f83015261475c81614723565b9050919050565b7f736574526174696f3a20726174696f20746f6f206c6f770000000000000000005f82015250565b5f614797601783613bca565b91506147a282614763565b602082019050919050565b5f6020820190508181035f8301526147c48161478b565b9050919050565b7f736574526174696f3a2063757272656e7420706f736974696f6e20756e7361665f8201527f6500000000000000000000000000000000000000000000000000000000000000602082015250565b5f614825602183613bca565b9150614830826147cb565b604082019050919050565b5f6020820190508181035f83015261485281614819565b9050919050565b7f72657061793a20616d6f756e743e3000000000000000000000000000000000005f82015250565b5f61488d600f83613bca565b915061489882614859565b602082019050919050565b5f6020820190508181035f8301526148ba81614881565b9050919050565b7f72657061793a20616d6f756e743e6465627400000000000000000000000000005f82015250565b5f6148f5601283613bca565b9150614900826148c1565b602082019050919050565b5f6020820190508181035f830152614922816148e9565b9050919050565b7f4e487b71000000000000000000000000000000000000000000000000000000005f52603260045260245ffd5b5f61496082613cc8565b91507fffffffffffffffffffffffffffffffffffffffffffffffffffffffffffffffff82036149925761499161409e565b5b600182019050919050565b7f6d696e743a20616d6f756e743e300000000000000000000000000000000000005f82015250565b5f6149d1600e83613bca565b91506149dc8261499d565b602082019050919050565b5f6020820190508181035f8301526149fe816149c5565b9050919050565b7f6d696e743a2073657420726174696f20666972737400000000000000000000005f82015250565b5f614a39601583613bca565b9150614a4482614a05565b602082019050919050565b5f6020820190508181035f830152614a6681614a2d565b9050919050565b5f614a7782613cc8565b9150614a8283613cc8565b9250828201905080821115614a9a57614a9961409e565b5b92915050565b7f6d696e743a206578636565647320616c6c6f776564206d696e740000000000005f82015250565b5f614ad4601a83613bca565b9150614adf82614aa0565b602082019050919050565b5f6020820190508181035f830152614b0181614ac8565b9050919050565b7f6e6f7420737570706f72746564000000000000000000000000000000000000005f82015250565b5f614b3c600d83613bca565b9150614b4782614b08565b602082019050919050565b5f6020820190508181035f830152614b6981614b30565b9050919050565b7f4e487b71000000000000000000000000000000000000000000000000000000005f52603160045260245ffd5b7f6465706f7369743a20616d6f756e743e300000000000000000000000000000005f82015250565b5f614bd1601183613bca565b9150614bdc82614b9d565b602082019050919050565b5f6020820190508181035f830152614bfe81614bc5565b9050919050565b7f616c726561647920737570706f727465640000000000000000000000000000005f82015250565b5f614c39601183613bca565b9150614c4482614c05565b602082019050919050565b5f6020820190508181035f830152614c6681614c2d565b9050919050565b7f45524332303a2062616c616e63650000000000000000000000000000000000005f82015250565b5f614ca1600e83613bca565b9150614cac82614c6d565b602082019050919050565b5f6020820190508181035f830152614cce81614c95565b9050919050565b7f6e6f2070726963652066656564000000000000000000000000000000000000005f82015250565b5f614d09600d83613bca565b9150614d1482614cd5565b602082019050919050565b5f6020820190508181035f830152614d3681614cfd565b9050919050565b5f69ffffffffffffffffffff82169050919050565b614d5b81614d3d565b8114614d65575f80fd5b50565b5f81519050614d7681614d52565b92915050565b5f819050919050565b614d8e81614d7c565b8114614d98575f80fd5b50565b5f81519050614da981614d85565b92915050565b5f81519050614dbd81613cd1565b92915050565b5f805f805f60a08688031215614ddc57614ddb613c6a565b5b5f614de988828901614d68565b9550506020614dfa88828901614d9b565b9450506040614e0b88828901614daf565b9350506060614e1c88828901614daf565b9250506080614e2d88828901614d68565b9150509295509295909350565b7f696e76616c6964207072696365000000000000000000000000000000000000005f82015250565b5f614e6e600d83613bca565b9150614e7982614e3a565b602082019050919050565b5f6020820190508181035f830152614e9b81614e62565b9050919050565b614eab81613e9f565b8114614eb5575f80fd5b50565b5f81519050614ec681614ea2565b92915050565b5f60208284031215614ee157614ee0613c6a565b5b5f614eee84828501614eb8565b91505092915050565b5f614f0182613e9f565b9150614f0c83613e9f565b9250828203905060ff811115614f2557614f2461409e565b5b92915050565b5f8160011c9050919050565b5f808291508390505b6001851115614f8057808604811115614f5c57614f5b61409e565b5b6001851615614f6b5780820291505b8081029050614f7985614f2b565b9450614f40565b94509492505050565b5f82614f985760019050615053565b81614fa5575f9050615053565b8160018114614fbb5760028114614fc557614ff4565b6001915050615053565b60ff841115614fd757614fd661409e565b5b8360020a915084821115614fee57614fed61409e565b5b50615053565b5060208310610133831016604e8410600b84101617156150295782820a9050838111156150245761502361409e565b5b615053565b6150368484846001614f37565b9250905081840481111561504d5761504c61409e565b5b81810290505b9392505050565b5f61506482613cc8565b915061506f83613e9f565b925061509c7fffffffffffffffffffffffffffffffffffffffffffffffffffffffffffffffff8484614f89565b905092915050565b5f6150ae82613cc8565b91506150b983613cc8565b92506150e67fffffffffffffffffffffffffffffffffffffffffffffffffffffffffffffffff8484614f89565b905092915050565b7f45524332303a206275726e20616d6f756e7420657863656564732062616c616e5f8201527f6365000000000000000000000000000000000000000000000000000000000000602082015250565b5f615148602283613bca565b9150615153826150ee565b604082019050919050565b5f6020820190508181035f8301526151758161513c565b905091905056fea2646970667358221220202e72b7e27aa99297ab6423ddb7de615a9ab3e052fbae896a0592cae30f3af464736f6c63430008140033","linkReferences":{}},"methodIdentifiers":{"LIQUIDATION_BONUS()":"3574d4c4","LIQUIDATION_FEE()":"b1827330","LIQUIDATION_THRESHOLD()":"90a8ae9b","MIN_COLLATERAL_RATIO()":"7a9fffb7","addSupportedToken(address,address)":"c2b7be16","allowance(address,address)":"dd62ed3e","approve(address,uint256)":"095ea7b3","balanceOf(address)":"70a08231","blacklisted(address)":"dbac26e9","burn(uint256)":"42966c68","decimals()":"313ce567","depositCollateral(address,uint256)":"a5d5db0c","getPosition(address,address)":"b33dc190","healthRatio(address,address)":"d394dd9c","liquidate(address,address,uint256)":"26c01303","maxMintable(address,address)":"d825183d","mint(address,uint256)":"40c10f19","name()":"06fdde03","owner()":"8da5cb5b","pause()":"8456cb59","paused()":"5c975abb","positions(address,address)":"4bd21445","priceFeed(address)":"1fd48b9a","removeSupportedToken(address)":"76319190","repay(uint256)":"371fd8e6","setBlacklist(address,bool)":"153b0d1e","setCollateralizationRatio(address,uint256)":"35deba68","supportedCollateral(address)":"fa550eba","supportedTokens(uint256)":"c6255626","symbol()":"95d89b41","totalSupply()":"18160ddd","transfer(address,uint256)":"a9059cbb","transferFrom(address,address,uint256)":"23b872dd","treasury()":"61d027b3","unpause()":"3f4ba83a","withdrawCollateral(address,uint256)":"350c35e9"},"id":19}