{"abi":[{"type":"constructor","inputs":[{"name":"_owner","type":"address","internalType":"address"}],"stateMutability":"nonpayable"},{"type":"function","name":"owner","inputs":[],"outputs":[{"name":"","type":"address","internalType":"address"}],"stateMutability":"view"},{"type":"function","name":"withdrawERC20","inputs":[{"name":"token","type":"address","internalType":"address"},{"name":"to","type":"address","internalType":"address"},{"name":"amount","type":"uint256","internalType":"uint256"}],"outputs":[],"stateMutability":"nonpayable"},{"type":"event","name":"Withdrawn","inputs":[{"name":"token","type":"address","indexed":false,"internalType":"address"},{"name":"to","type":"address","indexed":false,"internalType":"address"},{"name":"amount","type":"uint256","indexed":false,"internalType":"uint256"}],"anonymous":false}],"bytecode":{"object":"0x608060405234801561000f575f80fd5b506040516106ec3803806106ec833981810160405281019061003191906100d4565b805f806101000a81548173ffffffffffffffffffffffffffffffffffffffff021916908373ffffffffffffffffffffffffffffffffffffffff160217905550506100ff565b5f80fd5b5f73ffffffffffffffffffffffffffffffffffffffff82169050919050565b5f6100a38261007a565b9050919050565b6100b381610099565b81146100bd575f80fd5b50565b5f815190506100ce816100aa565b92915050565b5f602082840312156100e9576100e8610076565b5b5f6100f6848285016100c0565b91505092915050565b6105e08061010c5f395ff3fe608060405234801561000f575f80fd5b5060043610610034575f3560e01c806344004cc1146100385780638da5cb5b14610054575b5f80fd5b610052600480360381019061004d919061031f565b610072565b005b61005c61026b565b604051610069919061037e565b60405180910390f35b5f8054906101000a900473ffffffffffffffffffffffffffffffffffffffff1673ffffffffffffffffffffffffffffffffffffffff163373ffffffffffffffffffffffffffffffffffffffff16146100ff576040517f08c379a00000000000000000000000000000000000000000000000000000000081526004016100f6906103f1565b60405180910390fd5b5f73ffffffffffffffffffffffffffffffffffffffff168273ffffffffffffffffffffffffffffffffffffffff160361016d576040517f08c379a000000000000000000000000000000000000000000000000000000000815260040161016490610459565b60405180910390fd5b5f81116101af576040517f08c379a00000000000000000000000000000000000000000000000000000000081526004016101a6906104c1565b60405180910390fd5b8273ffffffffffffffffffffffffffffffffffffffff1663a9059cbb83836040518363ffffffff1660e01b81526004016101ea9291906104ee565b6020604051808303815f875af1158015610206573d5f803e3d5ffd5b505050506040513d601f19601f8201168201806040525081019061022a919061054a565b507fd1c19fbcd4551a5edfb66d43d2e337c04837afda3482b42bdf569a8fccdae5fb83838360405161025e93929190610575565b60405180910390a1505050565b5f8054906101000a900473ffffffffffffffffffffffffffffffffffffffff1681565b5f80fd5b5f73ffffffffffffffffffffffffffffffffffffffff82169050919050565b5f6102bb82610292565b9050919050565b6102cb816102b1565b81146102d5575f80fd5b50565b5f813590506102e6816102c2565b92915050565b5f819050919050565b6102fe816102ec565b8114610308575f80fd5b50565b5f81359050610319816102f5565b92915050565b5f805f606084860312156103365761033561028e565b5b5f610343868287016102d8565b9350506020610354868287016102d8565b92505060406103658682870161030b565b9150509250925092565b610378816102b1565b82525050565b5f6020820190506103915f83018461036f565b92915050565b5f82825260208201905092915050565b7f54726561737572793a206f6e6c79206f776e65720000000000000000000000005f82015250565b5f6103db601483610397565b91506103e6826103a7565b602082019050919050565b5f6020820190508181035f830152610408816103cf565b9050919050565b7f54726561737572793a20696e76616c696420746f0000000000000000000000005f82015250565b5f610443601483610397565b915061044e8261040f565b602082019050919050565b5f6020820190508181035f83015261047081610437565b9050919050565b7f54726561737572793a20616d6f756e743e3000000000000000000000000000005f82015250565b5f6104ab601283610397565b91506104b682610477565b602082019050919050565b5f6020820190508181035f8301526104d88161049f565b9050919050565b6104e8816102ec565b82525050565b5f6040820190506105015f83018561036f565b61050e60208301846104df565b9392505050565b5f8115159050919050565b61052981610515565b8114610533575f80fd5b50565b5f8151905061054481610520565b92915050565b5f6020828403121561055f5761055e61028e565b5b5f61056c84828501610536565b91505092915050565b5f6060820190506105885f83018661036f565b610595602083018561036f565b6105a260408301846104df565b94935050505056fea26469706673582212209e1391f1502bd86f41359cdb7a72810c9d30399c2311efa5784441803105ea1964736f6c63430008140033","linkReferences":{}},"methodIdentifiers":{"owner()":"8da5cb5b","withdrawERC20(address,address,uint256)":"44004cc1"},"id":19}