{"abi":[{"type":"constructor","inputs":[{"name":"decimals_","type":"uint8","internalType":"uint8"},{"name":"initialAnswer","type":"int256","internalType":"int256"}],"stateMutability":"nonpayable"},{"type":"function","name":"decimals","inputs":[],"outputs":[{"name":"","type":"uint8","internalType":"uint8"}],"stateMutability":"view"},{"type":"function","name":"description","inputs":[],"outputs":[{"name":"","type":"string","internalType":"string"}],"stateMutability":"pure"},{"type":"function","name":"latestRoundData","inputs":[],"outputs":[{"name":"roundId","type":"uint80","internalType":"uint80"},{"name":"answer","type":"int256","internalType":"int256"},{"name":"startedAt","type":"uint256","internalType":"uint256"},{"name":"updatedAt","type":"uint256","internalType":"uint256"},{"name":"answeredInRound","type":"uint80","internalType":"uint80"}],"stateMutability":"view"},{"type":"function","name":"setPrice","inputs":[{"name":"newAnswer","type":"int256","internalType":"int256"}],"outputs":[],"stateMutability":"nonpayable"},{"type":"function","name":"version","inputs":[],"outputs":[{"name":"","type":"uint256","internalType":"uint256"}],"stateMutability":"pure"},{"type":"event","name":"PriceUpdated","inputs":[{"name":"oldPrice","type":"int256","indexed":false,"internalType":"int256"},{"name":"newPrice","type":"int256","indexed":false,"internalType":"int256"}],"anonymous":false}],"bytecode":{"object":"0x608060405234801561000f575f80fd5b50604051610619380380610619833981810160405281019061003191906100f2565b815f806101000a81548160ff021916908360ff16021790555080600181905550600160025f6101000a81548169ffffffffffffffffffff021916908369ffffffffffffffffffff1602179055505050610130565b5f80fd5b5f60ff82169050919050565b61009e81610089565b81146100a8575f80fd5b50565b5f815190506100b981610095565b92915050565b5f819050919050565b6100d1816100bf565b81146100db575f80fd5b50565b5f815190506100ec816100c8565b92915050565b5f806040838503121561010857610107610085565b5b5f610115858286016100ab565b9250506020610126858286016100de565b9150509250929050565b6104dc8061013d5f395ff3fe608060405234801561000f575f80fd5b5060043610610055575f3560e01c8063313ce5671461005957806354fd4d50146100775780637284e41614610095578063f7a30806146100b3578063feaf968c146100cf575b5f80fd5b6100616100f1565b60405161006e9190610247565b60405180910390f35b61007f610105565b60405161008c9190610278565b60405180910390f35b61009d61010d565b6040516100aa919061031b565b60405180910390f35b6100cd60048036038101906100c89190610372565b61014a565b005b6100d76101e1565b6040516100e89594939291906103d0565b60405180910390f35b5f805f9054906101000a900460ff16905090565b5f6001905090565b60606040518060400160405280600a81526020017f4d6f636b4f7261636c6500000000000000000000000000000000000000000000815250905090565b7f92ddd77a3b8d4ec2f8d939408c461519c5ddea9083fd78b1ab24a449fe3427b96001548260405161017d929190610421565b60405180910390a160025f81819054906101000a900469ffffffffffffffffffff16809291906101ac90610475565b91906101000a81548169ffffffffffffffffffff021916908369ffffffffffffffffffff160217905550508060018190555050565b5f805f805f60025f9054906101000a900469ffffffffffffffffffff16600154424260025f9054906101000a900469ffffffffffffffffffff16945094509450945094509091929394565b5f60ff82169050919050565b6102418161022c565b82525050565b5f60208201905061025a5f830184610238565b92915050565b5f819050919050565b61027281610260565b82525050565b5f60208201905061028b5f830184610269565b92915050565b5f81519050919050565b5f82825260208201905092915050565b5f5b838110156102c85780820151818401526020810190506102ad565b5f8484015250505050565b5f601f19601f8301169050919050565b5f6102ed82610291565b6102f7818561029b565b93506103078185602086016102ab565b610310816102d3565b840191505092915050565b5f6020820190508181035f83015261033381846102e3565b905092915050565b5f80fd5b5f819050919050565b6103518161033f565b811461035b575f80fd5b50565b5f8135905061036c81610348565b92915050565b5f602082840312156103875761038661033b565b5b5f6103948482850161035e565b91505092915050565b5f69ffffffffffffffffffff82169050919050565b6103bb8161039d565b82525050565b6103ca8161033f565b82525050565b5f60a0820190506103e35f8301886103b2565b6103f060208301876103c1565b6103fd6040830186610269565b61040a6060830185610269565b61041760808301846103b2565b9695505050505050565b5f6040820190506104345f8301856103c1565b61044160208301846103c1565b9392505050565b7f4e487b71000000000000000000000000000000000000000000000000000000005f52601160045260245ffd5b5f61047f8261039d565b915069ffffffffffffffffffff820361049b5761049a610448565b5b60018201905091905056fea2646970667358221220cf83ecf18b855040965a4128d1a89c5f5fbd6397aa8738786beb416fd69a990764736f6c63430008140033","linkReferences":{}},"methodIdentifiers":{"decimals()":"313ce567","description()":"7284e416","latestRoundData()":"feaf968c","setPrice(int256)":"f7a30806","version()":"54fd4d50"},"id":22}